{
  "_format": "hh-sol-artifact-1",
  "contractName": "OneBeat",
  "sourceName": "contracts/OneBeat.sol",
  "abi": [
    {
      "inputs": [
        {
          "internalType": "uint256",
          "name": "",
          "type": "uint256"
        },
        {
          "internalType": "uint256",
          "name": "",
          "type": "uint256"
        }
      ],
      "name": "allowedWatchers",
      "outputs": [
        {
          "internalType": "address",
          "name": "",
          "type": "address"
        }
      ],
      "stateMutability": "view",
      "type": "function"
    },
    {
      "inputs": [
        {
          "internalType": "uint256",
          "name": "id",
          "type": "uint256"
        },
        {
          "internalType": "address",
          "name": "watcher",
          "type": "address"
        }
      ],
      "name": "bookSchdeuledStream",
      "outputs": [],
      "stateMutability": "payable",
      "type": "function"
    },
    {
      "inputs": [
        {
          "internalType": "uint256",
          "name": "tid",
          "type": "uint256"
        }
      ],
      "name": "buyNFT",
      "outputs": [],
      "stateMutability": "nonpayable",
      "type": "function"
    },
    {
      "inputs": [
        {
          "internalType": "uint256",
          "name": "tid",
          "type": "uint256"
        }
      ],
      "name": "createNFT",
      "outputs": [],
      "stateMutability": "nonpayable",
      "type": "function"
    },
    {
      "inputs": [
        {
          "internalType": "string",
          "name": "name",
          "type": "string"
        },
        {
          "internalType": "string",
          "name": "photo",
          "type": "string"
        }
      ],
      "name": "createProfile",
      "outputs": [],
      "stateMutability": "nonpayable",
      "type": "function"
    },
    {
      "inputs": [
        {
          "internalType": "address",
          "name": "creator",
          "type": "address"
        },
        {
          "internalType": "string",
          "name": "t",
          "type": "string"
        },
        {
          "internalType": "string",
          "name": "d",
          "type": "string"
        },
        {
          "internalType": "string[]",
          "name": "rights",
          "type": "string[]"
        },
        {
          "internalType": "string",
          "name": "cid",
          "type": "string"
        },
        {
          "internalType": "string",
          "name": "v_cid",
          "type": "string"
        },
        {
          "internalType": "bool",
          "name": "isRecord",
          "type": "bool"
        }
      ],
      "name": "createStream",
      "outputs": [],
      "stateMutability": "nonpayable",
      "type": "function"
    },
    {
      "inputs": [
        {
          "internalType": "address",
          "name": "",
          "type": "address"
        }
      ],
      "name": "creatorName",
      "outputs": [
        {
          "internalType": "string",
          "name": "",
          "type": "string"
        }
      ],
      "stateMutability": "view",
      "type": "function"
    },
    {
      "inputs": [
        {
          "internalType": "address",
          "name": "",
          "type": "address"
        }
      ],
      "name": "creatorPhoto",
      "outputs": [
        {
          "internalType": "string",
          "name": "",
          "type": "string"
        }
      ],
      "stateMutability": "view",
      "type": "function"
    },
    {
      "inputs": [
        {
          "internalType": "address",
          "name": "",
          "type": "address"
        },
        {
          "internalType": "uint256",
          "name": "",
          "type": "uint256"
        }
      ],
      "name": "creatorTokens",
      "outputs": [
        {
          "internalType": "uint256",
          "name": "",
          "type": "uint256"
        }
      ],
      "stateMutability": "view",
      "type": "function"
    },
    {
      "inputs": [
        {
          "internalType": "uint256",
          "name": "id",
          "type": "uint256"
        }
      ],
      "name": "getAllScheduledStreams",
      "outputs": [
        {
          "components": [
            {
              "internalType": "uint256",
              "name": "schedule_id",
              "type": "uint256"
            },
            {
              "internalType": "address",
              "name": "schedule_creator",
              "type": "address"
            },
            {
              "internalType": "string",
              "name": "cover_cid",
              "type": "string"
            },
            {
              "internalType": "string",
              "name": "s_title",
              "type": "string"
            },
            {
              "internalType": "string",
              "name": "s_description",
              "type": "string"
            },
            {
              "internalType": "string",
              "name": "time",
              "type": "string"
            },
            {
              "internalType": "address[]",
              "name": "rights",
              "type": "address[]"
            },
            {
              "internalType": "uint256",
              "name": "price",
              "type": "uint256"
            },
            {
              "internalType": "string",
              "name": "s_video_id",
              "type": "string"
            },
            {
              "internalType": "bool",
              "name": "isOver",
              "type": "bool"
            }
          ],
          "internalType": "struct OneBeat.StreamScheduled",
          "name": "",
          "type": "tuple"
        }
      ],
      "stateMutability": "view",
      "type": "function"
    },
    {
      "inputs": [
        {
          "internalType": "uint256",
          "name": "id",
          "type": "uint256"
        }
      ],
      "name": "getAllStream",
      "outputs": [
        {
          "components": [
            {
              "internalType": "uint256",
              "name": "stream_id",
              "type": "uint256"
            },
            {
              "internalType": "address",
              "name": "stream_creator",
              "type": "address"
            },
            {
              "internalType": "string",
              "name": "title",
              "type": "string"
            },
            {
              "internalType": "string",
              "name": "description",
              "type": "string"
            },
            {
              "internalType": "string[]",
              "name": "stream_rights",
              "type": "string[]"
            },
            {
              "internalType": "string",
              "name": "img_cid",
              "type": "string"
            },
            {
              "internalType": "string",
              "name": "video_id",
              "type": "string"
            },
            {
              "internalType": "bool",
              "name": "wantToRecord",
              "type": "bool"
            }
          ],
          "internalType": "struct OneBeat.Stream",
          "name": "",
          "type": "tuple"
        }
      ],
      "stateMutability": "view",
      "type": "function"
    },
    {
      "inputs": [],
      "name": "getAllUsers",
      "outputs": [
        {
          "internalType": "address[]",
          "name": "",
          "type": "address[]"
        }
      ],
      "stateMutability": "view",
      "type": "function"
    },
    {
      "inputs": [
        {
          "internalType": "uint256",
          "name": "id",
          "type": "uint256"
        }
      ],
      "name": "getAllowedWatcher",
      "outputs": [
        {
          "internalType": "address[]",
          "name": "",
          "type": "address[]"
        }
      ],
      "stateMutability": "view",
      "type": "function"
    },
    {
      "inputs": [],
      "name": "getName",
      "outputs": [
        {
          "internalType": "string",
          "name": "",
          "type": "string"
        }
      ],
      "stateMutability": "view",
      "type": "function"
    },
    {
      "inputs": [
        {
          "internalType": "address",
          "name": "righter",
          "type": "address"
        },
        {
          "internalType": "uint256",
          "name": "id",
          "type": "uint256"
        }
      ],
      "name": "getScheduledRights",
      "outputs": [
        {
          "internalType": "bool",
          "name": "",
          "type": "bool"
        }
      ],
      "stateMutability": "view",
      "type": "function"
    },
    {
      "inputs": [
        {
          "internalType": "string",
          "name": "righter",
          "type": "string"
        },
        {
          "internalType": "uint256",
          "name": "id",
          "type": "uint256"
        }
      ],
      "name": "getStreamRights",
      "outputs": [
        {
          "internalType": "bool",
          "name": "",
          "type": "bool"
        }
      ],
      "stateMutability": "view",
      "type": "function"
    },
    {
      "inputs": [],
      "name": "getTokens",
      "outputs": [
        {
          "internalType": "uint256[]",
          "name": "",
          "type": "uint256[]"
        }
      ],
      "stateMutability": "view",
      "type": "function"
    },
    {
      "inputs": [
        {
          "internalType": "uint256",
          "name": "",
          "type": "uint256"
        }
      ],
      "name": "idToScheduledStream",
      "outputs": [
        {
          "internalType": "uint256",
          "name": "schedule_id",
          "type": "uint256"
        },
        {
          "internalType": "address",
          "name": "schedule_creator",
          "type": "address"
        },
        {
          "internalType": "string",
          "name": "cover_cid",
          "type": "string"
        },
        {
          "internalType": "string",
          "name": "s_title",
          "type": "string"
        },
        {
          "internalType": "string",
          "name": "s_description",
          "type": "string"
        },
        {
          "internalType": "string",
          "name": "time",
          "type": "string"
        },
        {
          "internalType": "uint256",
          "name": "price",
          "type": "uint256"
        },
        {
          "internalType": "string",
          "name": "s_video_id",
          "type": "string"
        },
        {
          "internalType": "bool",
          "name": "isOver",
          "type": "bool"
        }
      ],
      "stateMutability": "view",
      "type": "function"
    },
    {
      "inputs": [
        {
          "internalType": "uint256",
          "name": "",
          "type": "uint256"
        }
      ],
      "name": "idToStream",
      "outputs": [
        {
          "internalType": "uint256",
          "name": "stream_id",
          "type": "uint256"
        },
        {
          "internalType": "address",
          "name": "stream_creator",
          "type": "address"
        },
        {
          "internalType": "string",
          "name": "title",
          "type": "string"
        },
        {
          "internalType": "string",
          "name": "description",
          "type": "string"
        },
        {
          "internalType": "string",
          "name": "img_cid",
          "type": "string"
        },
        {
          "internalType": "string",
          "name": "video_id",
          "type": "string"
        },
        {
          "internalType": "bool",
          "name": "wantToRecord",
          "type": "bool"
        }
      ],
      "stateMutability": "view",
      "type": "function"
    },
    {
      "inputs": [
        {
          "internalType": "address",
          "name": "",
          "type": "address"
        },
        {
          "internalType": "uint256",
          "name": "",
          "type": "uint256"
        }
      ],
      "name": "isAllowedForScheduledNfts",
      "outputs": [
        {
          "internalType": "bool",
          "name": "",
          "type": "bool"
        }
      ],
      "stateMutability": "view",
      "type": "function"
    },
    {
      "inputs": [
        {
          "internalType": "string",
          "name": "",
          "type": "string"
        },
        {
          "internalType": "uint256",
          "name": "",
          "type": "uint256"
        }
      ],
      "name": "isAllowedForStreamedNfts",
      "outputs": [
        {
          "internalType": "bool",
          "name": "",
          "type": "bool"
        }
      ],
      "stateMutability": "view",
      "type": "function"
    },
    {
      "inputs": [
        {
          "internalType": "address",
          "name": "creator",
          "type": "address"
        },
        {
          "internalType": "string",
          "name": "cid",
          "type": "string"
        },
        {
          "internalType": "string",
          "name": "title",
          "type": "string"
        },
        {
          "internalType": "string",
          "name": "des",
          "type": "string"
        },
        {
          "internalType": "string",
          "name": "time",
          "type": "string"
        },
        {
          "internalType": "address[]",
          "name": "rights",
          "type": "address[]"
        },
        {
          "internalType": "uint256",
          "name": "price",
          "type": "uint256"
        }
      ],
      "name": "scheduleStream",
      "outputs": [],
      "stateMutability": "nonpayable",
      "type": "function"
    },
    {
      "inputs": [
        {
          "internalType": "uint256",
          "name": "id",
          "type": "uint256"
        },
        {
          "internalType": "string",
          "name": "v_id",
          "type": "string"
        }
      ],
      "name": "startStream",
      "outputs": [],
      "stateMutability": "nonpayable",
      "type": "function"
    },
    {
      "inputs": [
        {
          "internalType": "address",
          "name": "",
          "type": "address"
        },
        {
          "internalType": "uint256",
          "name": "",
          "type": "uint256"
        }
      ],
      "name": "userToScheduledStream",
      "outputs": [
        {
          "internalType": "uint256",
          "name": "",
          "type": "uint256"
        }
      ],
      "stateMutability": "view",
      "type": "function"
    },
    {
      "inputs": [
        {
          "internalType": "address",
          "name": "",
          "type": "address"
        },
        {
          "internalType": "uint256",
          "name": "",
          "type": "uint256"
        }
      ],
      "name": "userToStream",
      "outputs": [
        {
          "internalType": "uint256",
          "name": "",
          "type": "uint256"
        }
      ],
      "stateMutability": "view",
      "type": "function"
    },
    {
      "inputs": [
        {
          "internalType": "uint256",
          "name": "",
          "type": "uint256"
        }
      ],
      "name": "users",
      "outputs": [
        {
          "internalType": "address",
          "name": "",
          "type": "address"
        }
      ],
      "stateMutability": "view",
      "type": "function"
    }
  ],
  "bytecode": "0x608060405234801561001057600080fd5b50613893806100206000396000f3fe6080604052600436106101815760003560e01c80638d262dfa116100d1578063d48286a51161008a578063e115a50b11610064578063e115a50b14610615578063e2842d7914610652578063e59020e51461067d578063ea37e673146106ba57610181565b8063d48286a514610558578063d5721a3514610595578063db3fa4cc146105d857610181565b80638d262dfa146104455780639649215514610482578063aa6ca808146104ab578063aa757b82146104d6578063ba1feb8a14610513578063c518761e1461053c57610181565b806340d1d9411161013e5780635c42d504116101185780635c42d5041461037957806369bce71e146103a25780637ff195f5146103cb578063801e8d751461040857610181565b806340d1d941146102ce57806351ed82881461030b57806355f6333b1461033457610181565b8063142fc78e1461018657806317d7de7c146101c35780632aff7c33146101ee5780632b8d8c131461022b578063350f81b814610254578063365b98b214610291575b600080fd5b34801561019257600080fd5b506101ad60048036038101906101a89190612b09565b6106f7565b6040516101ba91906132cd565b60405180910390f35b3480156101cf57600080fd5b506101d8610728565b6040516101e59190613247565b60405180910390f35b3480156101fa57600080fd5b5061021560048036038101906102109190612c05565b6107f7565b60405161022291906131e8565b60405180910390f35b34801561023757600080fd5b50610252600480360381019061024d91906128dd565b610898565b005b34801561026057600080fd5b5061027b60048036038101906102769190612c05565b610b3b565b6040516102889190613289565b60405180910390f35b34801561029d57600080fd5b506102b860048036038101906102b39190612c05565b610f56565b6040516102c591906131cd565b60405180910390f35b3480156102da57600080fd5b506102f560048036038101906102f09190612b09565b610f95565b604051610302919061322c565b60405180910390f35b34801561031757600080fd5b50610332600480360381019061032d9190612c05565b610ffd565b005b34801561034057600080fd5b5061035b60048036038101906103569190612c05565b611066565b60405161037099989796959493929190613373565b60405180910390f35b34801561038557600080fd5b506103a0600480360381019061039b9190612c6a565b611389565b005b3480156103ae57600080fd5b506103c960048036038101906103c491906129f3565b6113e7565b005b3480156103d757600080fd5b506103f260048036038101906103ed9190612cbe565b6116f0565b6040516103ff91906131cd565b60405180910390f35b34801561041457600080fd5b5061042f600480360381019061042a9190612bb1565b61173e565b60405161043c919061322c565b60405180910390f35b34801561045157600080fd5b5061046c60048036038101906104679190612b09565b611783565b60405161047991906132cd565b60405180910390f35b34801561048e57600080fd5b506104a960048036038101906104a49190612c05565b6117b4565b005b3480156104b757600080fd5b506104c061181d565b6040516104cd919061320a565b60405180910390f35b3480156104e257600080fd5b506104fd60048036038101906104f89190612b09565b6118b2565b60405161050a919061322c565b60405180910390f35b34801561051f57600080fd5b5061053a60048036038101906105359190612b45565b6118e1565b005b61055660048036038101906105519190612c2e565b611a99565b005b34801561056457600080fd5b5061057f600480360381019061057a9190612c05565b611b6f565b60405161058c91906132ab565b60405180910390f35b3480156105a157600080fd5b506105bc60048036038101906105b79190612c05565b611f39565b6040516105cf97969594939291906132e8565b60405180910390f35b3480156105e457600080fd5b506105ff60048036038101906105fa9190612b09565b6121c8565b60405161060c91906132cd565b60405180910390f35b34801561062157600080fd5b5061063c600480360381019061063791906128b4565b6121f9565b6040516106499190613247565b60405180910390f35b34801561065e57600080fd5b50610667612299565b60405161067491906131e8565b60405180910390f35b34801561068957600080fd5b506106a4600480360381019061069f91906128b4565b612327565b6040516106b19190613247565b60405180910390f35b3480156106c657600080fd5b506106e160048036038101906106dc9190612bb1565b6123c7565b6040516106ee919061322c565b60405180910390f35b6006602052816000526040600020818154811061071357600080fd5b90600052602060002001600091509150505481565b6060600860003373ffffffffffffffffffffffffffffffffffffffff1673ffffffffffffffffffffffffffffffffffffffff1681526020019081526020016000208054610774906136a5565b80601f01602080910402602001604051908101604052809291908181526020018280546107a0906136a5565b80156107ed5780601f106107c2576101008083540402835291602001916107ed565b820191906000526020600020905b8154815290600101906020018083116107d057829003601f168201915b5050505050905090565b6060600b600083815260200190815260200160002080548060200260200160405190810160405280929190818152602001828054801561088c57602002820191906000526020600020905b8160009054906101000a900473ffffffffffffffffffffffffffffffffffffffff1673ffffffffffffffffffffffffffffffffffffffff1681526020019060010190808311610842575b50505050509050919050565b6001600d60008282546108ab91906135c5565b92505081905550604051806101000160405280600d5481526020018873ffffffffffffffffffffffffffffffffffffffff16815260200187815260200186815260200185815260200184815260200183815260200182151581525060026000600d5481526020019081526020016000206000820151816000015560208201518160010160006101000a81548173ffffffffffffffffffffffffffffffffffffffff021916908373ffffffffffffffffffffffffffffffffffffffff160217905550604082015181600201908051906020019061098892919061240e565b5060608201518160030190805190602001906109a592919061240e565b5060808201518160040190805190602001906109c2929190612494565b5060a08201518160050190805190602001906109df92919061240e565b5060c08201518160060190805190602001906109fc92919061240e565b5060e08201518160070160006101000a81548160ff021916908315150217905550905050600360008873ffffffffffffffffffffffffffffffffffffffff1673ffffffffffffffffffffffffffffffffffffffff168152602001908152602001600020600d54908060018154018082558091505060019003906000526020600020016000909190919091505560005b8451811015610b315760016004868381518110610ad1577f4e487b7100000000000000000000000000000000000000000000000000000000600052603260045260246000fd5b6020026020010151604051610ae691906131b6565b90815260200160405180910390206000600d54815260200190815260200160002060006101000a81548160ff0219169083151502179055508080610b2990613708565b915050610a8b565b5050505050505050565b610b436124f4565b6005600083815260200190815260200160002060405180610140016040529081600082015481526020016001820160009054906101000a900473ffffffffffffffffffffffffffffffffffffffff1673ffffffffffffffffffffffffffffffffffffffff1673ffffffffffffffffffffffffffffffffffffffff168152602001600282018054610bd2906136a5565b80601f0160208091040260200160405190810160405280929190818152602001828054610bfe906136a5565b8015610c4b5780601f10610c2057610100808354040283529160200191610c4b565b820191906000526020600020905b815481529060010190602001808311610c2e57829003601f168201915b50505050508152602001600382018054610c64906136a5565b80601f0160208091040260200160405190810160405280929190818152602001828054610c90906136a5565b8015610cdd5780601f10610cb257610100808354040283529160200191610cdd565b820191906000526020600020905b815481529060010190602001808311610cc057829003601f168201915b50505050508152602001600482018054610cf6906136a5565b80601f0160208091040260200160405190810160405280929190818152602001828054610d22906136a5565b8015610d6f5780601f10610d4457610100808354040283529160200191610d6f565b820191906000526020600020905b815481529060010190602001808311610d5257829003601f168201915b50505050508152602001600582018054610d88906136a5565b80601f0160208091040260200160405190810160405280929190818152602001828054610db4906136a5565b8015610e015780601f10610dd657610100808354040283529160200191610e01565b820191906000526020600020905b815481529060010190602001808311610de457829003601f168201915b5050505050815260200160068201805480602002602001604051908101604052809291908181526020018280548015610e8f57602002820191906000526020600020905b8160009054906101000a900473ffffffffffffffffffffffffffffffffffffffff1673ffffffffffffffffffffffffffffffffffffffff1681526020019060010190808311610e45575b5050505050815260200160078201548152602001600882018054610eb2906136a5565b80601f0160208091040260200160405190810160405280929190818152602001828054610ede906136a5565b8015610f2b5780601f10610f0057610100808354040283529160200191610f2b565b820191906000526020600020905b815481529060010190602001808311610f0e57829003601f168201915b505050505081526020016009820160009054906101000a900460ff1615151515815250509050919050565b60008181548110610f6657600080fd5b906000526020600020016000915054906101000a900473ffffffffffffffffffffffffffffffffffffffff1681565b6000600760008473ffffffffffffffffffffffffffffffffffffffff1673ffffffffffffffffffffffffffffffffffffffff168152602001908152602001600020600083815260200190815260200160002060009054906101000a900460ff16905092915050565b600a60003373ffffffffffffffffffffffffffffffffffffffff1673ffffffffffffffffffffffffffffffffffffffff16815260200190815260200160002081908060018154018082558091505060019003906000526020600020016000909190919091505550565b60056020528060005260406000206000915090508060000154908060010160009054906101000a900473ffffffffffffffffffffffffffffffffffffffff16908060020180546110b5906136a5565b80601f01602080910402602001604051908101604052809291908181526020018280546110e1906136a5565b801561112e5780601f106111035761010080835404028352916020019161112e565b820191906000526020600020905b81548152906001019060200180831161111157829003601f168201915b505050505090806003018054611143906136a5565b80601f016020809104026020016040519081016040528092919081815260200182805461116f906136a5565b80156111bc5780601f10611191576101008083540402835291602001916111bc565b820191906000526020600020905b81548152906001019060200180831161119f57829003601f168201915b5050505050908060040180546111d1906136a5565b80601f01602080910402602001604051908101604052809291908181526020018280546111fd906136a5565b801561124a5780601f1061121f5761010080835404028352916020019161124a565b820191906000526020600020905b81548152906001019060200180831161122d57829003601f168201915b50505050509080600501805461125f906136a5565b80601f016020809104026020016040519081016040528092919081815260200182805461128b906136a5565b80156112d85780601f106112ad576101008083540402835291602001916112d8565b820191906000526020600020905b8154815290600101906020018083116112bb57829003601f168201915b5050505050908060070154908060080180546112f3906136a5565b80601f016020809104026020016040519081016040528092919081815260200182805461131f906136a5565b801561136c5780601f106113415761010080835404028352916020019161136c565b820191906000526020600020905b81548152906001019060200180831161134f57829003601f168201915b5050505050908060090160009054906101000a900460ff16905089565b806005600084815260200190815260200160002060080190805190602001906113b392919061240e565b5060016005600084815260200190815260200160002060090160006101000a81548160ff0219169083151502179055505050565b6001600c60008282546113fa91906135c5565b92505081905550604051806101400160405280600c5481526020018873ffffffffffffffffffffffffffffffffffffffff1681526020018781526020018681526020018581526020018481526020018381526020018281526020016040518060200160405280600081525081526020016000151581525060056000600c5481526020019081526020016000206000820151816000015560208201518160010160006101000a81548173ffffffffffffffffffffffffffffffffffffffff021916908373ffffffffffffffffffffffffffffffffffffffff16021790555060408201518160020190805190602001906114f392919061240e565b50606082015181600301908051906020019061151092919061240e565b50608082015181600401908051906020019061152d92919061240e565b5060a082015181600501908051906020019061154a92919061240e565b5060c082015181600601908051906020019061156792919061255f565b5060e0820151816007015561010082015181600801908051906020019061158f92919061240e565b506101208201518160090160006101000a81548160ff021916908315150217905550905050600660008873ffffffffffffffffffffffffffffffffffffffff1673ffffffffffffffffffffffffffffffffffffffff168152602001908152602001600020600c54908060018154018082558091505060019003906000526020600020016000909190919091505560005b82518110156116e657600160076000858481518110611667577f4e487b7100000000000000000000000000000000000000000000000000000000600052603260045260246000fd5b602002602001015173ffffffffffffffffffffffffffffffffffffffff1673ffffffffffffffffffffffffffffffffffffffff1681526020019081526020016000206000600d54815260200190815260200160002060006101000a81548160ff02191690831515021790555080806116de90613708565b91505061161f565b5050505050505050565b600b602052816000526040600020818154811061170c57600080fd5b906000526020600020016000915091509054906101000a900473ffffffffffffffffffffffffffffffffffffffff1681565b6004828051602081018201805184825260208301602085012081835280955050505050506020528060005260406000206000915091509054906101000a900460ff1681565b6003602052816000526040600020818154811061179f57600080fd5b90600052602060002001600091509150505481565b600a60003373ffffffffffffffffffffffffffffffffffffffff1673ffffffffffffffffffffffffffffffffffffffff16815260200190815260200160002081908060018154018082558091505060019003906000526020600020016000909190919091505550565b6060600a60003373ffffffffffffffffffffffffffffffffffffffff1673ffffffffffffffffffffffffffffffffffffffff1681526020019081526020016000208054806020026020016040519081016040528092919081815260200182805480156118a857602002820191906000526020600020905b815481526020019060010190808311611894575b5050505050905090565b60076020528160005260406000206020528060005260406000206000915091509054906101000a900460ff1681565b600160003373ffffffffffffffffffffffffffffffffffffffff1673ffffffffffffffffffffffffffffffffffffffff16815260200190815260200160002060009054906101000a900460ff166119ed576000339080600181540180825580915050600190039060005260206000200160009091909190916101000a81548173ffffffffffffffffffffffffffffffffffffffff021916908373ffffffffffffffffffffffffffffffffffffffff16021790555060018060003373ffffffffffffffffffffffffffffffffffffffff1673ffffffffffffffffffffffffffffffffffffffff16815260200190815260200160002060006101000a81548160ff0219169083151502179055505b81600860003373ffffffffffffffffffffffffffffffffffffffff1673ffffffffffffffffffffffffffffffffffffffff1681526020019081526020016000209080519060200190611a4092919061240e565b5080600860003373ffffffffffffffffffffffffffffffffffffffff1673ffffffffffffffffffffffffffffffffffffffff1681526020019081526020016000209080519060200190611a9492919061240e565b505050565b600060056000848152602001908152602001600020600701549050803414611af6576040517f08c379a0000000000000000000000000000000000000000000000000000000008152600401611aed90613269565b60405180910390fd5b600b6000848152602001908152602001600020829080600181540180825580915050600190039060005260206000200160009091909190916101000a81548173ffffffffffffffffffffffffffffffffffffffff021916908373ffffffffffffffffffffffffffffffffffffffff160217905550505050565b611b776125e9565b6002600083815260200190815260200160002060405180610100016040529081600082015481526020016001820160009054906101000a900473ffffffffffffffffffffffffffffffffffffffff1673ffffffffffffffffffffffffffffffffffffffff1673ffffffffffffffffffffffffffffffffffffffff168152602001600282018054611c06906136a5565b80601f0160208091040260200160405190810160405280929190818152602001828054611c32906136a5565b8015611c7f5780601f10611c5457610100808354040283529160200191611c7f565b820191906000526020600020905b815481529060010190602001808311611c6257829003601f168201915b50505050508152602001600382018054611c98906136a5565b80601f0160208091040260200160405190810160405280929190818152602001828054611cc4906136a5565b8015611d115780601f10611ce657610100808354040283529160200191611d11565b820191906000526020600020905b815481529060010190602001808311611cf457829003601f168201915b5050505050815260200160048201805480602002602001604051908101604052809291908181526020016000905b82821015611deb578382906000526020600020018054611d5e906136a5565b80601f0160208091040260200160405190810160405280929190818152602001828054611d8a906136a5565b8015611dd75780601f10611dac57610100808354040283529160200191611dd7565b820191906000526020600020905b815481529060010190602001808311611dba57829003601f168201915b505050505081526020019060010190611d3f565b505050508152602001600582018054611e03906136a5565b80601f0160208091040260200160405190810160405280929190818152602001828054611e2f906136a5565b8015611e7c5780601f10611e5157610100808354040283529160200191611e7c565b820191906000526020600020905b815481529060010190602001808311611e5f57829003601f168201915b50505050508152602001600682018054611e95906136a5565b80601f0160208091040260200160405190810160405280929190818152602001828054611ec1906136a5565b8015611f0e5780601f10611ee357610100808354040283529160200191611f0e565b820191906000526020600020905b815481529060010190602001808311611ef157829003601f168201915b505050505081526020016007820160009054906101000a900460ff1615151515815250509050919050565b60026020528060005260406000206000915090508060000154908060010160009054906101000a900473ffffffffffffffffffffffffffffffffffffffff1690806002018054611f88906136a5565b80601f0160208091040260200160405190810160405280929190818152602001828054611fb4906136a5565b80156120015780601f10611fd657610100808354040283529160200191612001565b820191906000526020600020905b815481529060010190602001808311611fe457829003601f168201915b505050505090806003018054612016906136a5565b80601f0160208091040260200160405190810160405280929190818152602001828054612042906136a5565b801561208f5780601f106120645761010080835404028352916020019161208f565b820191906000526020600020905b81548152906001019060200180831161207257829003601f168201915b5050505050908060050180546120a4906136a5565b80601f01602080910402602001604051908101604052809291908181526020018280546120d0906136a5565b801561211d5780601f106120f25761010080835404028352916020019161211d565b820191906000526020600020905b81548152906001019060200180831161210057829003601f168201915b505050505090806006018054612132906136a5565b80601f016020809104026020016040519081016040528092919081815260200182805461215e906136a5565b80156121ab5780601f10612180576101008083540402835291602001916121ab565b820191906000526020600020905b81548152906001019060200180831161218e57829003601f168201915b5050505050908060070160009054906101000a900460ff16905087565b600a60205281600052604060002081815481106121e457600080fd5b90600052602060002001600091509150505481565b60096020528060005260406000206000915090508054612218906136a5565b80601f0160208091040260200160405190810160405280929190818152602001828054612244906136a5565b80156122915780601f1061226657610100808354040283529160200191612291565b820191906000526020600020905b81548152906001019060200180831161227457829003601f168201915b505050505081565b6060600080548060200260200160405190810160405280929190818152602001828054801561231d57602002820191906000526020600020905b8160009054906101000a900473ffffffffffffffffffffffffffffffffffffffff1673ffffffffffffffffffffffffffffffffffffffff16815260200190600101908083116122d3575b5050505050905090565b60086020528060005260406000206000915090508054612346906136a5565b80601f0160208091040260200160405190810160405280929190818152602001828054612372906136a5565b80156123bf5780601f10612394576101008083540402835291602001916123bf565b820191906000526020600020905b8154815290600101906020018083116123a257829003601f168201915b505050505081565b60006004836040516123d991906131b6565b9081526020016040518091039020600083815260200190815260200160002060009054906101000a900460ff16905092915050565b82805461241a906136a5565b90600052602060002090601f01602090048101928261243c5760008555612483565b82601f1061245557805160ff1916838001178555612483565b82800160010185558215612483579182015b82811115612482578251825591602001919060010190612467565b5b5090506124909190612646565b5090565b8280548282559060005260206000209081019282156124e3579160200282015b828111156124e25782518290805190602001906124d292919061240e565b50916020019190600101906124b4565b5b5090506124f09190612663565b5090565b60405180610140016040528060008152602001600073ffffffffffffffffffffffffffffffffffffffff168152602001606081526020016060815260200160608152602001606081526020016060815260200160008152602001606081526020016000151581525090565b8280548282559060005260206000209081019282156125d8579160200282015b828111156125d75782518260006101000a81548173ffffffffffffffffffffffffffffffffffffffff021916908373ffffffffffffffffffffffffffffffffffffffff1602179055509160200191906001019061257f565b5b5090506125e59190612646565b5090565b60405180610100016040528060008152602001600073ffffffffffffffffffffffffffffffffffffffff16815260200160608152602001606081526020016060815260200160608152602001606081526020016000151581525090565b5b8082111561265f576000816000905550600101612647565b5090565b5b80821115612683576000818161267a9190612687565b50600101612664565b5090565b508054612693906136a5565b6000825580601f106126a557506126c4565b601f0160209004906000526020600020908101906126c39190612646565b5b50565b60006126da6126d584613448565b613423565b905080838252602082019050828560208602820111156126f957600080fd5b60005b85811015612729578161270f88826127f7565b8452602084019350602083019250506001810190506126fc565b5050509392505050565b600061274661274184613474565b613423565b9050808382526020820190508285602086028201111561276557600080fd5b60005b858110156127af57813567ffffffffffffffff81111561278757600080fd5b8086016127948982612875565b85526020850194506020840193505050600181019050612768565b5050509392505050565b60006127cc6127c7846134a0565b613423565b9050828152602081018484840111156127e457600080fd5b6127ef848285613663565b509392505050565b60008135905061280681613818565b92915050565b600082601f83011261281d57600080fd5b813561282d8482602086016126c7565b91505092915050565b600082601f83011261284757600080fd5b8135612857848260208601612733565b91505092915050565b60008135905061286f8161382f565b92915050565b600082601f83011261288657600080fd5b81356128968482602086016127b9565b91505092915050565b6000813590506128ae81613846565b92915050565b6000602082840312156128c657600080fd5b60006128d4848285016127f7565b91505092915050565b600080600080600080600060e0888a0312156128f857600080fd5b60006129068a828b016127f7565b975050602088013567ffffffffffffffff81111561292357600080fd5b61292f8a828b01612875565b965050604088013567ffffffffffffffff81111561294c57600080fd5b6129588a828b01612875565b955050606088013567ffffffffffffffff81111561297557600080fd5b6129818a828b01612836565b945050608088013567ffffffffffffffff81111561299e57600080fd5b6129aa8a828b01612875565b93505060a088013567ffffffffffffffff8111156129c757600080fd5b6129d38a828b01612875565b92505060c06129e48a828b01612860565b91505092959891949750929550565b600080600080600080600060e0888a031215612a0e57600080fd5b6000612a1c8a828b016127f7565b975050602088013567ffffffffffffffff811115612a3957600080fd5b612a458a828b01612875565b965050604088013567ffffffffffffffff811115612a6257600080fd5b612a6e8a828b01612875565b955050606088013567ffffffffffffffff811115612a8b57600080fd5b612a978a828b01612875565b945050608088013567ffffffffffffffff811115612ab457600080fd5b612ac08a828b01612875565b93505060a088013567ffffffffffffffff811115612add57600080fd5b612ae98a828b0161280c565b92505060c0612afa8a828b0161289f565b91505092959891949750929550565b60008060408385031215612b1c57600080fd5b6000612b2a858286016127f7565b9250506020612b3b8582860161289f565b9150509250929050565b60008060408385031215612b5857600080fd5b600083013567ffffffffffffffff811115612b7257600080fd5b612b7e85828601612875565b925050602083013567ffffffffffffffff811115612b9b57600080fd5b612ba785828601612875565b9150509250929050565b60008060408385031215612bc457600080fd5b600083013567ffffffffffffffff811115612bde57600080fd5b612bea85828601612875565b9250506020612bfb8582860161289f565b9150509250929050565b600060208284031215612c1757600080fd5b6000612c258482850161289f565b91505092915050565b60008060408385031215612c4157600080fd5b6000612c4f8582860161289f565b9250506020612c60858286016127f7565b9150509250929050565b60008060408385031215612c7d57600080fd5b6000612c8b8582860161289f565b925050602083013567ffffffffffffffff811115612ca857600080fd5b612cb485828601612875565b9150509250929050565b60008060408385031215612cd157600080fd5b6000612cdf8582860161289f565b9250506020612cf08582860161289f565b9150509250929050565b6000612d068383612d3e565b60208301905092915050565b6000612d1e8383612f09565b905092915050565b6000612d328383613198565b60208301905092915050565b612d478161361b565b82525050565b612d568161361b565b82525050565b6000612d6782613501565b612d718185613554565b9350612d7c836134d1565b8060005b83811015612dad578151612d948882612cfa565b9750612d9f8361352d565b925050600181019050612d80565b5085935050505092915050565b6000612dc582613501565b612dcf8185613565565b9350612dda836134d1565b8060005b83811015612e0b578151612df28882612cfa565b9750612dfd8361352d565b925050600181019050612dde565b5085935050505092915050565b6000612e238261350c565b612e2d8185613576565b935083602082028501612e3f856134e1565b8060005b85811015612e7b5784840389528151612e5c8582612d12565b9450612e678361353a565b925060208a01995050600181019050612e43565b50829750879550505050505092915050565b6000612e9882613517565b612ea28185613587565b9350612ead836134f1565b8060005b83811015612ede578151612ec58882612d26565b9750612ed083613547565b925050600181019050612eb1565b5085935050505092915050565b612ef48161362d565b82525050565b612f038161362d565b82525050565b6000612f1482613522565b612f1e8185613598565b9350612f2e818560208601613672565b612f37816137de565b840191505092915050565b6000612f4d82613522565b612f5781856135a9565b9350612f67818560208601613672565b612f70816137de565b840191505092915050565b6000612f8682613522565b612f9081856135ba565b9350612fa0818560208601613672565b80840191505092915050565b6000612fb96010836135a9565b9150612fc4826137ef565b602082019050919050565b600061014083016000830151612fe86000860182613198565b506020830151612ffb6020860182612d3e565b50604083015184820360408601526130138282612f09565b9150506060830151848203606086015261302d8282612f09565b915050608083015184820360808601526130478282612f09565b91505060a083015184820360a08601526130618282612f09565b91505060c083015184820360c086015261307b8282612d5c565b91505060e083015161309060e0860182613198565b506101008301518482036101008601526130aa8282612f09565b9150506101208301516130c1610120860182612eeb565b508091505092915050565b6000610100830160008301516130e56000860182613198565b5060208301516130f86020860182612d3e565b50604083015184820360408601526131108282612f09565b9150506060830151848203606086015261312a8282612f09565b915050608083015184820360808601526131448282612e18565b91505060a083015184820360a086015261315e8282612f09565b91505060c083015184820360c08601526131788282612f09565b91505060e083015161318d60e0860182612eeb565b508091505092915050565b6131a181613659565b82525050565b6131b081613659565b82525050565b60006131c28284612f7b565b915081905092915050565b60006020820190506131e26000830184612d4d565b92915050565b600060208201905081810360008301526132028184612dba565b905092915050565b600060208201905081810360008301526132248184612e8d565b905092915050565b60006020820190506132416000830184612efa565b92915050565b600060208201905081810360008301526132618184612f42565b905092915050565b6000602082019050818103600083015261328281612fac565b9050919050565b600060208201905081810360008301526132a38184612fcf565b905092915050565b600060208201905081810360008301526132c581846130cc565b905092915050565b60006020820190506132e260008301846131a7565b92915050565b600060e0820190506132fd600083018a6131a7565b61330a6020830189612d4d565b818103604083015261331c8188612f42565b905081810360608301526133308187612f42565b905081810360808301526133448186612f42565b905081810360a08301526133588185612f42565b905061336760c0830184612efa565b98975050505050505050565b600061012082019050613389600083018c6131a7565b613396602083018b612d4d565b81810360408301526133a8818a612f42565b905081810360608301526133bc8189612f42565b905081810360808301526133d08188612f42565b905081810360a08301526133e48187612f42565b90506133f360c08301866131a7565b81810360e08301526134058185612f42565b9050613415610100830184612efa565b9a9950505050505050505050565b600061342d61343e565b905061343982826136d7565b919050565b6000604051905090565b600067ffffffffffffffff821115613463576134626137af565b5b602082029050602081019050919050565b600067ffffffffffffffff82111561348f5761348e6137af565b5b602082029050602081019050919050565b600067ffffffffffffffff8211156134bb576134ba6137af565b5b6134c4826137de565b9050602081019050919050565b6000819050602082019050919050565b6000819050602082019050919050565b6000819050602082019050919050565b600081519050919050565b600081519050919050565b600081519050919050565b600081519050919050565b6000602082019050919050565b6000602082019050919050565b6000602082019050919050565b600082825260208201905092915050565b600082825260208201905092915050565b600082825260208201905092915050565b600082825260208201905092915050565b600082825260208201905092915050565b600082825260208201905092915050565b600081905092915050565b60006135d082613659565b91506135db83613659565b9250827fffffffffffffffffffffffffffffffffffffffffffffffffffffffffffffffff038211156136105761360f613751565b5b828201905092915050565b600061362682613639565b9050919050565b60008115159050919050565b600073ffffffffffffffffffffffffffffffffffffffff82169050919050565b6000819050919050565b82818337600083830152505050565b60005b83811015613690578082015181840152602081019050613675565b8381111561369f576000848401525b50505050565b600060028204905060018216806136bd57607f821691505b602082108114156136d1576136d0613780565b5b50919050565b6136e0826137de565b810181811067ffffffffffffffff821117156136ff576136fe6137af565b5b80604052505050565b600061371382613659565b91507fffffffffffffffffffffffffffffffffffffffffffffffffffffffffffffffff82141561374657613745613751565b5b600182019050919050565b7f4e487b7100000000000000000000000000000000000000000000000000000000600052601160045260246000fd5b7f4e487b7100000000000000000000000000000000000000000000000000000000600052602260045260246000fd5b7f4e487b7100000000000000000000000000000000000000000000000000000000600052604160045260246000fd5b6000601f19601f8301169050919050565b7f6e6f7420656e6f7567682076616c756500000000000000000000000000000000600082015250565b6138218161361b565b811461382c57600080fd5b50565b6138388161362d565b811461384357600080fd5b50565b61384f81613659565b811461385a57600080fd5b5056fea2646970667358221220b5dd366826166ad63add8637e8815b5360b4bafc8afb77d9d9d3971ecf5056df64736f6c63430008040033",
  "linkReferences": {},
  "deployedLinkReferences": {}
}