{
  "_format": "hh-sol-artifact-1",
  "contractName": "OneBeat",
  "sourceName": "contracts/OneBeat.sol",
  "abi": [
    {
      "inputs": [
        {
          "internalType": "uint256",
          "name": "",
          "type": "uint256"
        },
        {
          "internalType": "uint256",
          "name": "",
          "type": "uint256"
        }
      ],
      "name": "allowedWatchers",
      "outputs": [
        {
          "internalType": "address",
          "name": "",
          "type": "address"
        }
      ],
      "stateMutability": "view",
      "type": "function"
    },
    {
      "inputs": [
        {
          "internalType": "uint256",
          "name": "id",
          "type": "uint256"
        },
        {
          "internalType": "address",
          "name": "watcher",
          "type": "address"
        }
      ],
      "name": "bookSchdeuledStream",
      "outputs": [],
      "stateMutability": "payable",
      "type": "function"
    },
    {
      "inputs": [
        {
          "internalType": "address",
          "name": "user",
          "type": "address"
        },
        {
          "internalType": "uint256",
          "name": "tid",
          "type": "uint256"
        }
      ],
      "name": "buyNFT",
      "outputs": [],
      "stateMutability": "nonpayable",
      "type": "function"
    },
    {
      "inputs": [
        {
          "internalType": "address",
          "name": "user",
          "type": "address"
        },
        {
          "internalType": "uint256",
          "name": "tid",
          "type": "uint256"
        }
      ],
      "name": "createNFT",
      "outputs": [],
      "stateMutability": "nonpayable",
      "type": "function"
    },
    {
      "inputs": [
        {
          "internalType": "address",
          "name": "user",
          "type": "address"
        },
        {
          "internalType": "string",
          "name": "name",
          "type": "string"
        },
        {
          "internalType": "string",
          "name": "photo",
          "type": "string"
        }
      ],
      "name": "createProfile",
      "outputs": [],
      "stateMutability": "nonpayable",
      "type": "function"
    },
    {
      "inputs": [
        {
          "internalType": "address",
          "name": "creator",
          "type": "address"
        },
        {
          "internalType": "string",
          "name": "t",
          "type": "string"
        },
        {
          "internalType": "string",
          "name": "d",
          "type": "string"
        },
        {
          "internalType": "string[]",
          "name": "rights",
          "type": "string[]"
        },
        {
          "internalType": "string",
          "name": "cid",
          "type": "string"
        },
        {
          "internalType": "string",
          "name": "v_cid",
          "type": "string"
        },
        {
          "internalType": "bool",
          "name": "isRecord",
          "type": "bool"
        }
      ],
      "name": "createStream",
      "outputs": [],
      "stateMutability": "nonpayable",
      "type": "function"
    },
    {
      "inputs": [
        {
          "internalType": "address",
          "name": "",
          "type": "address"
        }
      ],
      "name": "creatorInfo",
      "outputs": [
        {
          "internalType": "address",
          "name": "creator",
          "type": "address"
        },
        {
          "internalType": "string",
          "name": "creatorName",
          "type": "string"
        },
        {
          "internalType": "string",
          "name": "photo_cid",
          "type": "string"
        }
      ],
      "stateMutability": "view",
      "type": "function"
    },
    {
      "inputs": [
        {
          "internalType": "uint256",
          "name": "id",
          "type": "uint256"
        }
      ],
      "name": "getAllScheduledStreams",
      "outputs": [
        {
          "components": [
            {
              "internalType": "uint256",
              "name": "schedule_id",
              "type": "uint256"
            },
            {
              "internalType": "address",
              "name": "schedule_creator",
              "type": "address"
            },
            {
              "internalType": "string",
              "name": "cover_cid",
              "type": "string"
            },
            {
              "internalType": "string",
              "name": "s_title",
              "type": "string"
            },
            {
              "internalType": "string",
              "name": "s_description",
              "type": "string"
            },
            {
              "internalType": "string",
              "name": "time",
              "type": "string"
            },
            {
              "internalType": "address[]",
              "name": "rights",
              "type": "address[]"
            },
            {
              "internalType": "uint256",
              "name": "price",
              "type": "uint256"
            },
            {
              "internalType": "string",
              "name": "s_video_id",
              "type": "string"
            },
            {
              "internalType": "bool",
              "name": "isOver",
              "type": "bool"
            }
          ],
          "internalType": "struct OneBeat.StreamScheduled",
          "name": "",
          "type": "tuple"
        }
      ],
      "stateMutability": "view",
      "type": "function"
    },
    {
      "inputs": [
        {
          "internalType": "uint256",
          "name": "id",
          "type": "uint256"
        }
      ],
      "name": "getAllStream",
      "outputs": [
        {
          "components": [
            {
              "internalType": "uint256",
              "name": "stream_id",
              "type": "uint256"
            },
            {
              "internalType": "address",
              "name": "stream_creator",
              "type": "address"
            },
            {
              "internalType": "string",
              "name": "title",
              "type": "string"
            },
            {
              "internalType": "string",
              "name": "description",
              "type": "string"
            },
            {
              "internalType": "string[]",
              "name": "stream_rights",
              "type": "string[]"
            },
            {
              "internalType": "string",
              "name": "img_cid",
              "type": "string"
            },
            {
              "internalType": "string",
              "name": "video_id",
              "type": "string"
            },
            {
              "internalType": "bool",
              "name": "wantToRecord",
              "type": "bool"
            }
          ],
          "internalType": "struct OneBeat.Stream",
          "name": "",
          "type": "tuple"
        }
      ],
      "stateMutability": "view",
      "type": "function"
    },
    {
      "inputs": [],
      "name": "getAllUsers",
      "outputs": [
        {
          "internalType": "address[]",
          "name": "",
          "type": "address[]"
        }
      ],
      "stateMutability": "view",
      "type": "function"
    },
    {
      "inputs": [
        {
          "internalType": "uint256",
          "name": "id",
          "type": "uint256"
        }
      ],
      "name": "getAllowedWatcher",
      "outputs": [
        {
          "internalType": "address[]",
          "name": "",
          "type": "address[]"
        }
      ],
      "stateMutability": "view",
      "type": "function"
    },
    {
      "inputs": [
        {
          "internalType": "address",
          "name": "user",
          "type": "address"
        }
      ],
      "name": "getCreator",
      "outputs": [
        {
          "components": [
            {
              "internalType": "address",
              "name": "creator",
              "type": "address"
            },
            {
              "internalType": "string",
              "name": "creatorName",
              "type": "string"
            },
            {
              "internalType": "string",
              "name": "photo_cid",
              "type": "string"
            },
            {
              "internalType": "uint256[]",
              "name": "tokens",
              "type": "uint256[]"
            }
          ],
          "internalType": "struct OneBeat.Creator",
          "name": "",
          "type": "tuple"
        }
      ],
      "stateMutability": "view",
      "type": "function"
    },
    {
      "inputs": [
        {
          "internalType": "address",
          "name": "righter",
          "type": "address"
        },
        {
          "internalType": "uint256",
          "name": "id",
          "type": "uint256"
        }
      ],
      "name": "getScheduledRights",
      "outputs": [
        {
          "internalType": "bool",
          "name": "",
          "type": "bool"
        }
      ],
      "stateMutability": "view",
      "type": "function"
    },
    {
      "inputs": [
        {
          "internalType": "address",
          "name": "user",
          "type": "address"
        }
      ],
      "name": "getStreamId",
      "outputs": [
        {
          "internalType": "uint256[]",
          "name": "",
          "type": "uint256[]"
        }
      ],
      "stateMutability": "view",
      "type": "function"
    },
    {
      "inputs": [
        {
          "internalType": "string",
          "name": "righter",
          "type": "string"
        },
        {
          "internalType": "uint256",
          "name": "id",
          "type": "uint256"
        }
      ],
      "name": "getStreamRights",
      "outputs": [
        {
          "internalType": "bool",
          "name": "",
          "type": "bool"
        }
      ],
      "stateMutability": "view",
      "type": "function"
    },
    {
      "inputs": [
        {
          "internalType": "address",
          "name": "user",
          "type": "address"
        }
      ],
      "name": "getTotal",
      "outputs": [
        {
          "internalType": "uint256",
          "name": "",
          "type": "uint256"
        }
      ],
      "stateMutability": "view",
      "type": "function"
    },
    {
      "inputs": [
        {
          "internalType": "address",
          "name": "user",
          "type": "address"
        }
      ],
      "name": "getTotalScheduledStreams",
      "outputs": [
        {
          "internalType": "uint256",
          "name": "",
          "type": "uint256"
        }
      ],
      "stateMutability": "view",
      "type": "function"
    },
    {
      "inputs": [
        {
          "internalType": "address",
          "name": "user",
          "type": "address"
        }
      ],
      "name": "getTotalStream",
      "outputs": [
        {
          "internalType": "uint256",
          "name": "",
          "type": "uint256"
        }
      ],
      "stateMutability": "view",
      "type": "function"
    },
    {
      "inputs": [
        {
          "internalType": "uint256",
          "name": "",
          "type": "uint256"
        }
      ],
      "name": "idToScheduledStream",
      "outputs": [
        {
          "internalType": "uint256",
          "name": "schedule_id",
          "type": "uint256"
        },
        {
          "internalType": "address",
          "name": "schedule_creator",
          "type": "address"
        },
        {
          "internalType": "string",
          "name": "cover_cid",
          "type": "string"
        },
        {
          "internalType": "string",
          "name": "s_title",
          "type": "string"
        },
        {
          "internalType": "string",
          "name": "s_description",
          "type": "string"
        },
        {
          "internalType": "string",
          "name": "time",
          "type": "string"
        },
        {
          "internalType": "uint256",
          "name": "price",
          "type": "uint256"
        },
        {
          "internalType": "string",
          "name": "s_video_id",
          "type": "string"
        },
        {
          "internalType": "bool",
          "name": "isOver",
          "type": "bool"
        }
      ],
      "stateMutability": "view",
      "type": "function"
    },
    {
      "inputs": [
        {
          "internalType": "uint256",
          "name": "",
          "type": "uint256"
        }
      ],
      "name": "idToStream",
      "outputs": [
        {
          "internalType": "uint256",
          "name": "stream_id",
          "type": "uint256"
        },
        {
          "internalType": "address",
          "name": "stream_creator",
          "type": "address"
        },
        {
          "internalType": "string",
          "name": "title",
          "type": "string"
        },
        {
          "internalType": "string",
          "name": "description",
          "type": "string"
        },
        {
          "internalType": "string",
          "name": "img_cid",
          "type": "string"
        },
        {
          "internalType": "string",
          "name": "video_id",
          "type": "string"
        },
        {
          "internalType": "bool",
          "name": "wantToRecord",
          "type": "bool"
        }
      ],
      "stateMutability": "view",
      "type": "function"
    },
    {
      "inputs": [
        {
          "internalType": "address",
          "name": "",
          "type": "address"
        },
        {
          "internalType": "uint256",
          "name": "",
          "type": "uint256"
        }
      ],
      "name": "isAllowedForScheduledNfts",
      "outputs": [
        {
          "internalType": "bool",
          "name": "",
          "type": "bool"
        }
      ],
      "stateMutability": "view",
      "type": "function"
    },
    {
      "inputs": [
        {
          "internalType": "string",
          "name": "",
          "type": "string"
        },
        {
          "internalType": "uint256",
          "name": "",
          "type": "uint256"
        }
      ],
      "name": "isAllowedForStreamedNfts",
      "outputs": [
        {
          "internalType": "bool",
          "name": "",
          "type": "bool"
        }
      ],
      "stateMutability": "view",
      "type": "function"
    },
    {
      "inputs": [
        {
          "internalType": "address",
          "name": "creator",
          "type": "address"
        },
        {
          "internalType": "string",
          "name": "cid",
          "type": "string"
        },
        {
          "internalType": "string",
          "name": "title",
          "type": "string"
        },
        {
          "internalType": "string",
          "name": "des",
          "type": "string"
        },
        {
          "internalType": "string",
          "name": "time",
          "type": "string"
        },
        {
          "internalType": "address[]",
          "name": "rights",
          "type": "address[]"
        },
        {
          "internalType": "uint256",
          "name": "price",
          "type": "uint256"
        }
      ],
      "name": "scheduleStream",
      "outputs": [],
      "stateMutability": "nonpayable",
      "type": "function"
    },
    {
      "inputs": [
        {
          "internalType": "uint256",
          "name": "id",
          "type": "uint256"
        },
        {
          "internalType": "string",
          "name": "v_id",
          "type": "string"
        }
      ],
      "name": "startStream",
      "outputs": [],
      "stateMutability": "nonpayable",
      "type": "function"
    },
    {
      "inputs": [
        {
          "internalType": "address",
          "name": "",
          "type": "address"
        },
        {
          "internalType": "uint256",
          "name": "",
          "type": "uint256"
        }
      ],
      "name": "userToScheduledStream",
      "outputs": [
        {
          "internalType": "uint256",
          "name": "",
          "type": "uint256"
        }
      ],
      "stateMutability": "view",
      "type": "function"
    },
    {
      "inputs": [
        {
          "internalType": "address",
          "name": "",
          "type": "address"
        },
        {
          "internalType": "uint256",
          "name": "",
          "type": "uint256"
        }
      ],
      "name": "userToStream",
      "outputs": [
        {
          "internalType": "uint256",
          "name": "",
          "type": "uint256"
        }
      ],
      "stateMutability": "view",
      "type": "function"
    },
    {
      "inputs": [
        {
          "internalType": "uint256",
          "name": "",
          "type": "uint256"
        }
      ],
      "name": "users",
      "outputs": [
        {
          "internalType": "address",
          "name": "",
          "type": "address"
        }
      ],
      "stateMutability": "view",
      "type": "function"
    }
  ],
  "bytecode": "0x608060405234801561001057600080fd5b50613d8f806100206000396000f3fe60806040526004361061019c5760003560e01c80637ff195f5116100ec578063c11c956c1161008a578063d5721a3511610064578063d5721a351461068d578063e2842d79146106d0578063ea37e673146106fb578063ebb6dad8146107385761019c565b8063c11c956c1461060b578063c518761e14610634578063d48286a5146106505761019c565b80639aee1b93116100c65780639aee1b9314610529578063a021030914610568578063a82ba76f146105a5578063aa757b82146105ce5761019c565b80637ff195f514610472578063801e8d75146104af5780638d262dfa146104ec5761019c565b806340d1d941116101595780635c42d504116101335780635c42d504146103ba57806360dd6812146103e357806369bce71e1461040c5780637b2f085c146104355761019c565b806340d1d941146102fb5780634891a2e51461033857806355f6333b146103755761019c565b8063142fc78e146101a157806316a76c04146101de5780632aff7c331461021b5780632b8d8c1314610258578063350f81b814610281578063365b98b2146102be575b600080fd5b3480156101ad57600080fd5b506101c860048036038101906101c39190612f4c565b610775565b6040516101d591906137b8565b60405180910390f35b3480156101ea57600080fd5b5061020560048036038101906102009190612c78565b6107a6565b60405161021291906137b8565b60405180910390f35b34801561022757600080fd5b50610242600480360381019061023d9190612fdc565b6107f2565b60405161024f91906136d3565b60405180910390f35b34801561026457600080fd5b5061027f600480360381019061027a9190612d20565b610893565b005b34801561028d57600080fd5b506102a860048036038101906102a39190612fdc565b610b36565b6040516102b59190613774565b60405180910390f35b3480156102ca57600080fd5b506102e560048036038101906102e09190612fdc565b610f51565b6040516102f29190613673565b60405180910390f35b34801561030757600080fd5b50610322600480360381019061031d9190612f4c565b610f90565b60405161032f9190613717565b60405180910390f35b34801561034457600080fd5b5061035f600480360381019061035a9190612c78565b610ff8565b60405161036c91906136f5565b60405180910390f35b34801561038157600080fd5b5061039c60048036038101906103979190612fdc565b61108f565b6040516103b19998979695949392919061385e565b60405180910390f35b3480156103c657600080fd5b506103e160048036038101906103dc9190613041565b6113b2565b005b3480156103ef57600080fd5b5061040a60048036038101906104059190612ca1565b611410565b005b34801561041857600080fd5b50610433600480360381019061042e9190612e36565b611650565b005b34801561044157600080fd5b5061045c60048036038101906104579190612c78565b611959565b60405161046991906137b8565b60405180910390f35b34801561047e57600080fd5b5061049960048036038101906104949190613095565b6119a5565b6040516104a69190613673565b60405180910390f35b3480156104bb57600080fd5b506104d660048036038101906104d19190612f88565b6119f3565b6040516104e39190613717565b60405180910390f35b3480156104f857600080fd5b50610513600480360381019061050e9190612f4c565b611a38565b60405161052091906137b8565b60405180910390f35b34801561053557600080fd5b50610550600480360381019061054b9190612c78565b611a69565b60405161055f9392919061368e565b60405180910390f35b34801561057457600080fd5b5061058f600480360381019061058a9190612c78565b611bc3565b60405161059c9190613752565b60405180910390f35b3480156105b157600080fd5b506105cc60048036038101906105c79190612f4c565b611dee565b005b3480156105da57600080fd5b506105f560048036038101906105f09190612f4c565b611e5b565b6040516106029190613717565b60405180910390f35b34801561061757600080fd5b50610632600480360381019061062d9190612f4c565b611e8a565b005b61064e60048036038101906106499190613005565b611ef7565b005b34801561065c57600080fd5b5061067760048036038101906106729190612fdc565b611fcd565b6040516106849190613796565b60405180910390f35b34801561069957600080fd5b506106b460048036038101906106af9190612fdc565b612397565b6040516106c797969594939291906137d3565b60405180910390f35b3480156106dc57600080fd5b506106e5612626565b6040516106f291906136d3565b60405180910390f35b34801561070757600080fd5b50610722600480360381019061071d9190612f88565b6126b4565b60405161072f9190613717565b60405180910390f35b34801561074457600080fd5b5061075f600480360381019061075a9190612c78565b6126fb565b60405161076c91906137b8565b60405180910390f35b6006602052816000526040600020818154811061079157600080fd5b90600052602060002001600091509150505481565b6000600660008373ffffffffffffffffffffffffffffffffffffffff1673ffffffffffffffffffffffffffffffffffffffff168152602001908152602001600020805490509050919050565b60606009600083815260200190815260200160002080548060200260200160405190810160405280929190818152602001828054801561088757602002820191906000526020600020905b8160009054906101000a900473ffffffffffffffffffffffffffffffffffffffff1673ffffffffffffffffffffffffffffffffffffffff168152602001906001019080831161083d575b50505050509050919050565b6001600b60008282546108a69190613ac1565b92505081905550604051806101000160405280600b5481526020018873ffffffffffffffffffffffffffffffffffffffff16815260200187815260200186815260200185815260200184815260200183815260200182151581525060026000600b5481526020019081526020016000206000820151816000015560208201518160010160006101000a81548173ffffffffffffffffffffffffffffffffffffffff021916908373ffffffffffffffffffffffffffffffffffffffff1602179055506040820151816002019080519060200190610983929190612794565b5060608201518160030190805190602001906109a0929190612794565b5060808201518160040190805190602001906109bd92919061281a565b5060a08201518160050190805190602001906109da929190612794565b5060c08201518160060190805190602001906109f7929190612794565b5060e08201518160070160006101000a81548160ff021916908315150217905550905050600360008873ffffffffffffffffffffffffffffffffffffffff1673ffffffffffffffffffffffffffffffffffffffff168152602001908152602001600020600b54908060018154018082558091505060019003906000526020600020016000909190919091505560005b8451811015610b2c5760016004868381518110610acc577f4e487b7100000000000000000000000000000000000000000000000000000000600052603260045260246000fd5b6020026020010151604051610ae1919061365c565b90815260200160405180910390206000600b54815260200190815260200160002060006101000a81548160ff0219169083151502179055508080610b2490613c04565b915050610a86565b5050505050505050565b610b3e61287a565b6005600083815260200190815260200160002060405180610140016040529081600082015481526020016001820160009054906101000a900473ffffffffffffffffffffffffffffffffffffffff1673ffffffffffffffffffffffffffffffffffffffff1673ffffffffffffffffffffffffffffffffffffffff168152602001600282018054610bcd90613ba1565b80601f0160208091040260200160405190810160405280929190818152602001828054610bf990613ba1565b8015610c465780601f10610c1b57610100808354040283529160200191610c46565b820191906000526020600020905b815481529060010190602001808311610c2957829003601f168201915b50505050508152602001600382018054610c5f90613ba1565b80601f0160208091040260200160405190810160405280929190818152602001828054610c8b90613ba1565b8015610cd85780601f10610cad57610100808354040283529160200191610cd8565b820191906000526020600020905b815481529060010190602001808311610cbb57829003601f168201915b50505050508152602001600482018054610cf190613ba1565b80601f0160208091040260200160405190810160405280929190818152602001828054610d1d90613ba1565b8015610d6a5780601f10610d3f57610100808354040283529160200191610d6a565b820191906000526020600020905b815481529060010190602001808311610d4d57829003601f168201915b50505050508152602001600582018054610d8390613ba1565b80601f0160208091040260200160405190810160405280929190818152602001828054610daf90613ba1565b8015610dfc5780601f10610dd157610100808354040283529160200191610dfc565b820191906000526020600020905b815481529060010190602001808311610ddf57829003601f168201915b5050505050815260200160068201805480602002602001604051908101604052809291908181526020018280548015610e8a57602002820191906000526020600020905b8160009054906101000a900473ffffffffffffffffffffffffffffffffffffffff1673ffffffffffffffffffffffffffffffffffffffff1681526020019060010190808311610e40575b5050505050815260200160078201548152602001600882018054610ead90613ba1565b80601f0160208091040260200160405190810160405280929190818152602001828054610ed990613ba1565b8015610f265780601f10610efb57610100808354040283529160200191610f26565b820191906000526020600020905b815481529060010190602001808311610f0957829003601f168201915b505050505081526020016009820160009054906101000a900460ff1615151515815250509050919050565b60008181548110610f6157600080fd5b906000526020600020016000915054906101000a900473ffffffffffffffffffffffffffffffffffffffff1681565b6000600760008473ffffffffffffffffffffffffffffffffffffffff1673ffffffffffffffffffffffffffffffffffffffff168152602001908152602001600020600083815260200190815260200160002060009054906101000a900460ff16905092915050565b6060600360008373ffffffffffffffffffffffffffffffffffffffff1673ffffffffffffffffffffffffffffffffffffffff16815260200190815260200160002080548060200260200160405190810160405280929190818152602001828054801561108357602002820191906000526020600020905b81548152602001906001019080831161106f575b50505050509050919050565b60056020528060005260406000206000915090508060000154908060010160009054906101000a900473ffffffffffffffffffffffffffffffffffffffff16908060020180546110de90613ba1565b80601f016020809104026020016040519081016040528092919081815260200182805461110a90613ba1565b80156111575780601f1061112c57610100808354040283529160200191611157565b820191906000526020600020905b81548152906001019060200180831161113a57829003601f168201915b50505050509080600301805461116c90613ba1565b80601f016020809104026020016040519081016040528092919081815260200182805461119890613ba1565b80156111e55780601f106111ba576101008083540402835291602001916111e5565b820191906000526020600020905b8154815290600101906020018083116111c857829003601f168201915b5050505050908060040180546111fa90613ba1565b80601f016020809104026020016040519081016040528092919081815260200182805461122690613ba1565b80156112735780601f1061124857610100808354040283529160200191611273565b820191906000526020600020905b81548152906001019060200180831161125657829003601f168201915b50505050509080600501805461128890613ba1565b80601f01602080910402602001604051908101604052809291908181526020018280546112b490613ba1565b80156113015780601f106112d657610100808354040283529160200191611301565b820191906000526020600020905b8154815290600101906020018083116112e457829003601f168201915b50505050509080600701549080600801805461131c90613ba1565b80601f016020809104026020016040519081016040528092919081815260200182805461134890613ba1565b80156113955780601f1061136a57610100808354040283529160200191611395565b820191906000526020600020905b81548152906001019060200180831161137857829003601f168201915b5050505050908060090160009054906101000a900460ff16905089565b806005600084815260200190815260200160002060080190805190602001906113dc929190612794565b5060016005600084815260200190815260200160002060090160006101000a81548160ff0219169083151502179055505050565b600160008473ffffffffffffffffffffffffffffffffffffffff1673ffffffffffffffffffffffffffffffffffffffff16815260200190815260200160002060009054906101000a900460ff1661151c576000839080600181540180825580915050600190039060005260206000200160009091909190916101000a81548173ffffffffffffffffffffffffffffffffffffffff021916908373ffffffffffffffffffffffffffffffffffffffff16021790555060018060008573ffffffffffffffffffffffffffffffffffffffff1673ffffffffffffffffffffffffffffffffffffffff16815260200190815260200160002060006101000a81548160ff0219169083151502179055505b82600860008573ffffffffffffffffffffffffffffffffffffffff1673ffffffffffffffffffffffffffffffffffffffff16815260200190815260200160002060000160006101000a81548173ffffffffffffffffffffffffffffffffffffffff021916908373ffffffffffffffffffffffffffffffffffffffff16021790555081600860008573ffffffffffffffffffffffffffffffffffffffff1673ffffffffffffffffffffffffffffffffffffffff16815260200190815260200160002060010190805190602001906115f3929190612794565b5080600860008573ffffffffffffffffffffffffffffffffffffffff1673ffffffffffffffffffffffffffffffffffffffff168152602001908152602001600020600201908051906020019061164a929190612794565b50505050565b6001600a60008282546116639190613ac1565b92505081905550604051806101400160405280600a5481526020018873ffffffffffffffffffffffffffffffffffffffff1681526020018781526020018681526020018581526020018481526020018381526020018281526020016040518060200160405280600081525081526020016000151581525060056000600a5481526020019081526020016000206000820151816000015560208201518160010160006101000a81548173ffffffffffffffffffffffffffffffffffffffff021916908373ffffffffffffffffffffffffffffffffffffffff160217905550604082015181600201908051906020019061175c929190612794565b506060820151816003019080519060200190611779929190612794565b506080820151816004019080519060200190611796929190612794565b5060a08201518160050190805190602001906117b3929190612794565b5060c08201518160060190805190602001906117d09291906128e5565b5060e082015181600701556101008201518160080190805190602001906117f8929190612794565b506101208201518160090160006101000a81548160ff021916908315150217905550905050600660008873ffffffffffffffffffffffffffffffffffffffff1673ffffffffffffffffffffffffffffffffffffffff168152602001908152602001600020600a54908060018154018082558091505060019003906000526020600020016000909190919091505560005b825181101561194f576001600760008584815181106118d0577f4e487b7100000000000000000000000000000000000000000000000000000000600052603260045260246000fd5b602002602001015173ffffffffffffffffffffffffffffffffffffffff1673ffffffffffffffffffffffffffffffffffffffff1681526020019081526020016000206000600b54815260200190815260200160002060006101000a81548160ff021916908315150217905550808061194790613c04565b915050611888565b5050505050505050565b6000600360008373ffffffffffffffffffffffffffffffffffffffff1673ffffffffffffffffffffffffffffffffffffffff168152602001908152602001600020805490509050919050565b600960205281600052604060002081815481106119c157600080fd5b906000526020600020016000915091509054906101000a900473ffffffffffffffffffffffffffffffffffffffff1681565b6004828051602081018201805184825260208301602085012081835280955050505050506020528060005260406000206000915091509054906101000a900460ff1681565b60036020528160005260406000208181548110611a5457600080fd5b90600052602060002001600091509150505481565b60086020528060005260406000206000915090508060000160009054906101000a900473ffffffffffffffffffffffffffffffffffffffff1690806001018054611ab290613ba1565b80601f0160208091040260200160405190810160405280929190818152602001828054611ade90613ba1565b8015611b2b5780601f10611b0057610100808354040283529160200191611b2b565b820191906000526020600020905b815481529060010190602001808311611b0e57829003601f168201915b505050505090806002018054611b4090613ba1565b80601f0160208091040260200160405190810160405280929190818152602001828054611b6c90613ba1565b8015611bb95780601f10611b8e57610100808354040283529160200191611bb9565b820191906000526020600020905b815481529060010190602001808311611b9c57829003601f168201915b5050505050905083565b611bcb61296f565b600860008373ffffffffffffffffffffffffffffffffffffffff1673ffffffffffffffffffffffffffffffffffffffff1681526020019081526020016000206040518060800160405290816000820160009054906101000a900473ffffffffffffffffffffffffffffffffffffffff1673ffffffffffffffffffffffffffffffffffffffff1673ffffffffffffffffffffffffffffffffffffffff168152602001600182018054611c7b90613ba1565b80601f0160208091040260200160405190810160405280929190818152602001828054611ca790613ba1565b8015611cf45780601f10611cc957610100808354040283529160200191611cf4565b820191906000526020600020905b815481529060010190602001808311611cd757829003601f168201915b50505050508152602001600282018054611d0d90613ba1565b80601f0160208091040260200160405190810160405280929190818152602001828054611d3990613ba1565b8015611d865780601f10611d5b57610100808354040283529160200191611d86565b820191906000526020600020905b815481529060010190602001808311611d6957829003601f168201915b5050505050815260200160038201805480602002602001604051908101604052809291908181526020018280548015611dde57602002820191906000526020600020905b815481526020019060010190808311611dca575b5050505050815250509050919050565b600860008373ffffffffffffffffffffffffffffffffffffffff1673ffffffffffffffffffffffffffffffffffffffff1681526020019081526020016000206003018190806001815401808255809150506001900390600052602060002001600090919091909150555050565b60076020528160005260406000206020528060005260406000206000915091509054906101000a900460ff1681565b600860008373ffffffffffffffffffffffffffffffffffffffff1673ffffffffffffffffffffffffffffffffffffffff1681526020019081526020016000206003018190806001815401808255809150506001900390600052602060002001600090919091909150555050565b600060056000848152602001908152602001600020600701549050803414611f54576040517f08c379a0000000000000000000000000000000000000000000000000000000008152600401611f4b90613732565b60405180910390fd5b60096000848152602001908152602001600020829080600181540180825580915050600190039060005260206000200160009091909190916101000a81548173ffffffffffffffffffffffffffffffffffffffff021916908373ffffffffffffffffffffffffffffffffffffffff160217905550505050565b611fd56129ad565b6002600083815260200190815260200160002060405180610100016040529081600082015481526020016001820160009054906101000a900473ffffffffffffffffffffffffffffffffffffffff1673ffffffffffffffffffffffffffffffffffffffff1673ffffffffffffffffffffffffffffffffffffffff16815260200160028201805461206490613ba1565b80601f016020809104026020016040519081016040528092919081815260200182805461209090613ba1565b80156120dd5780601f106120b2576101008083540402835291602001916120dd565b820191906000526020600020905b8154815290600101906020018083116120c057829003601f168201915b505050505081526020016003820180546120f690613ba1565b80601f016020809104026020016040519081016040528092919081815260200182805461212290613ba1565b801561216f5780601f106121445761010080835404028352916020019161216f565b820191906000526020600020905b81548152906001019060200180831161215257829003601f168201915b5050505050815260200160048201805480602002602001604051908101604052809291908181526020016000905b828210156122495783829060005260206000200180546121bc90613ba1565b80601f01602080910402602001604051908101604052809291908181526020018280546121e890613ba1565b80156122355780601f1061220a57610100808354040283529160200191612235565b820191906000526020600020905b81548152906001019060200180831161221857829003601f168201915b50505050508152602001906001019061219d565b50505050815260200160058201805461226190613ba1565b80601f016020809104026020016040519081016040528092919081815260200182805461228d90613ba1565b80156122da5780601f106122af576101008083540402835291602001916122da565b820191906000526020600020905b8154815290600101906020018083116122bd57829003601f168201915b505050505081526020016006820180546122f390613ba1565b80601f016020809104026020016040519081016040528092919081815260200182805461231f90613ba1565b801561236c5780601f106123415761010080835404028352916020019161236c565b820191906000526020600020905b81548152906001019060200180831161234f57829003601f168201915b505050505081526020016007820160009054906101000a900460ff1615151515815250509050919050565b60026020528060005260406000206000915090508060000154908060010160009054906101000a900473ffffffffffffffffffffffffffffffffffffffff16908060020180546123e690613ba1565b80601f016020809104026020016040519081016040528092919081815260200182805461241290613ba1565b801561245f5780601f106124345761010080835404028352916020019161245f565b820191906000526020600020905b81548152906001019060200180831161244257829003601f168201915b50505050509080600301805461247490613ba1565b80601f01602080910402602001604051908101604052809291908181526020018280546124a090613ba1565b80156124ed5780601f106124c2576101008083540402835291602001916124ed565b820191906000526020600020905b8154815290600101906020018083116124d057829003601f168201915b50505050509080600501805461250290613ba1565b80601f016020809104026020016040519081016040528092919081815260200182805461252e90613ba1565b801561257b5780601f106125505761010080835404028352916020019161257b565b820191906000526020600020905b81548152906001019060200180831161255e57829003601f168201915b50505050509080600601805461259090613ba1565b80601f01602080910402602001604051908101604052809291908181526020018280546125bc90613ba1565b80156126095780601f106125de57610100808354040283529160200191612609565b820191906000526020600020905b8154815290600101906020018083116125ec57829003601f168201915b5050505050908060070160009054906101000a900460ff16905087565b606060008054806020026020016040519081016040528092919081815260200182805480156126aa57602002820191906000526020600020905b8160009054906101000a900473ffffffffffffffffffffffffffffffffffffffff1673ffffffffffffffffffffffffffffffffffffffff1681526020019060010190808311612660575b5050505050905090565b60006004836040516126c6919061365c565b9081526020016040518091039020600083815260200190815260200160002060009054906101000a900460ff16905092915050565b6000600660008373ffffffffffffffffffffffffffffffffffffffff1673ffffffffffffffffffffffffffffffffffffffff16815260200190815260200160002080549050600360008473ffffffffffffffffffffffffffffffffffffffff1673ffffffffffffffffffffffffffffffffffffffff1681526020019081526020016000208054905061278d9190613ac1565b9050919050565b8280546127a090613ba1565b90600052602060002090601f0160209004810192826127c25760008555612809565b82601f106127db57805160ff1916838001178555612809565b82800160010185558215612809579182015b828111156128085782518255916020019190600101906127ed565b5b5090506128169190612a0a565b5090565b828054828255906000526020600020908101928215612869579160200282015b82811115612868578251829080519060200190612858929190612794565b509160200191906001019061283a565b5b5090506128769190612a27565b5090565b60405180610140016040528060008152602001600073ffffffffffffffffffffffffffffffffffffffff168152602001606081526020016060815260200160608152602001606081526020016060815260200160008152602001606081526020016000151581525090565b82805482825590600052602060002090810192821561295e579160200282015b8281111561295d5782518260006101000a81548173ffffffffffffffffffffffffffffffffffffffff021916908373ffffffffffffffffffffffffffffffffffffffff16021790555091602001919060010190612905565b5b50905061296b9190612a0a565b5090565b6040518060800160405280600073ffffffffffffffffffffffffffffffffffffffff1681526020016060815260200160608152602001606081525090565b60405180610100016040528060008152602001600073ffffffffffffffffffffffffffffffffffffffff16815260200160608152602001606081526020016060815260200160608152602001606081526020016000151581525090565b5b80821115612a23576000816000905550600101612a0b565b5090565b5b80821115612a475760008181612a3e9190612a4b565b50600101612a28565b5090565b508054612a5790613ba1565b6000825580601f10612a695750612a88565b601f016020900490600052602060002090810190612a879190612a0a565b5b50565b6000612a9e612a9984613933565b61390e565b90508083825260208201905082856020860282011115612abd57600080fd5b60005b85811015612aed5781612ad38882612bbb565b845260208401935060208301925050600181019050612ac0565b5050509392505050565b6000612b0a612b058461395f565b61390e565b90508083825260208201905082856020860282011115612b2957600080fd5b60005b85811015612b7357813567ffffffffffffffff811115612b4b57600080fd5b808601612b588982612c39565b85526020850194506020840193505050600181019050612b2c565b5050509392505050565b6000612b90612b8b8461398b565b61390e565b905082815260208101848484011115612ba857600080fd5b612bb3848285613b5f565b509392505050565b600081359050612bca81613d14565b92915050565b600082601f830112612be157600080fd5b8135612bf1848260208601612a8b565b91505092915050565b600082601f830112612c0b57600080fd5b8135612c1b848260208601612af7565b91505092915050565b600081359050612c3381613d2b565b92915050565b600082601f830112612c4a57600080fd5b8135612c5a848260208601612b7d565b91505092915050565b600081359050612c7281613d42565b92915050565b600060208284031215612c8a57600080fd5b6000612c9884828501612bbb565b91505092915050565b600080600060608486031215612cb657600080fd5b6000612cc486828701612bbb565b935050602084013567ffffffffffffffff811115612ce157600080fd5b612ced86828701612c39565b925050604084013567ffffffffffffffff811115612d0a57600080fd5b612d1686828701612c39565b9150509250925092565b600080600080600080600060e0888a031215612d3b57600080fd5b6000612d498a828b01612bbb565b975050602088013567ffffffffffffffff811115612d6657600080fd5b612d728a828b01612c39565b965050604088013567ffffffffffffffff811115612d8f57600080fd5b612d9b8a828b01612c39565b955050606088013567ffffffffffffffff811115612db857600080fd5b612dc48a828b01612bfa565b945050608088013567ffffffffffffffff811115612de157600080fd5b612ded8a828b01612c39565b93505060a088013567ffffffffffffffff811115612e0a57600080fd5b612e168a828b01612c39565b92505060c0612e278a828b01612c24565b91505092959891949750929550565b600080600080600080600060e0888a031215612e5157600080fd5b6000612e5f8a828b01612bbb565b975050602088013567ffffffffffffffff811115612e7c57600080fd5b612e888a828b01612c39565b965050604088013567ffffffffffffffff811115612ea557600080fd5b612eb18a828b01612c39565b955050606088013567ffffffffffffffff811115612ece57600080fd5b612eda8a828b01612c39565b945050608088013567ffffffffffffffff811115612ef757600080fd5b612f038a828b01612c39565b93505060a088013567ffffffffffffffff811115612f2057600080fd5b612f2c8a828b01612bd0565b92505060c0612f3d8a828b01612c63565b91505092959891949750929550565b60008060408385031215612f5f57600080fd5b6000612f6d85828601612bbb565b9250506020612f7e85828601612c63565b9150509250929050565b60008060408385031215612f9b57600080fd5b600083013567ffffffffffffffff811115612fb557600080fd5b612fc185828601612c39565b9250506020612fd285828601612c63565b9150509250929050565b600060208284031215612fee57600080fd5b6000612ffc84828501612c63565b91505092915050565b6000806040838503121561301857600080fd5b600061302685828601612c63565b925050602061303785828601612bbb565b9150509250929050565b6000806040838503121561305457600080fd5b600061306285828601612c63565b925050602083013567ffffffffffffffff81111561307f57600080fd5b61308b85828601612c39565b9150509250929050565b600080604083850312156130a857600080fd5b60006130b685828601612c63565b92505060206130c785828601612c63565b9150509250929050565b60006130dd8383613115565b60208301905092915050565b60006130f5838361333e565b905092915050565b6000613109838361363e565b60208301905092915050565b61311e81613b17565b82525050565b61312d81613b17565b82525050565b600061313e826139ec565b6131488185613a3f565b9350613153836139bc565b8060005b8381101561318457815161316b88826130d1565b975061317683613a18565b925050600181019050613157565b5085935050505092915050565b600061319c826139ec565b6131a68185613a50565b93506131b1836139bc565b8060005b838110156131e25781516131c988826130d1565b97506131d483613a18565b9250506001810190506131b5565b5085935050505092915050565b60006131fa826139f7565b6132048185613a61565b935083602082028501613216856139cc565b8060005b85811015613252578484038952815161323385826130e9565b945061323e83613a25565b925060208a0199505060018101905061321a565b50829750879550505050505092915050565b600061326f82613a02565b6132798185613a72565b9350613284836139dc565b8060005b838110156132b557815161329c88826130fd565b97506132a783613a32565b925050600181019050613288565b5085935050505092915050565b60006132cd82613a02565b6132d78185613a83565b93506132e2836139dc565b8060005b838110156133135781516132fa88826130fd565b975061330583613a32565b9250506001810190506132e6565b5085935050505092915050565b61332981613b29565b82525050565b61333881613b29565b82525050565b600061334982613a0d565b6133538185613a94565b9350613363818560208601613b6e565b61336c81613cda565b840191505092915050565b600061338282613a0d565b61338c8185613aa5565b935061339c818560208601613b6e565b6133a581613cda565b840191505092915050565b60006133bb82613a0d565b6133c58185613ab6565b93506133d5818560208601613b6e565b80840191505092915050565b60006133ee601083613aa5565b91506133f982613ceb565b602082019050919050565b600060808301600083015161341c6000860182613115565b5060208301518482036020860152613434828261333e565b9150506040830151848203604086015261344e828261333e565b915050606083015184820360608601526134688282613264565b9150508091505092915050565b60006101408301600083015161348e600086018261363e565b5060208301516134a16020860182613115565b50604083015184820360408601526134b9828261333e565b915050606083015184820360608601526134d3828261333e565b915050608083015184820360808601526134ed828261333e565b91505060a083015184820360a0860152613507828261333e565b91505060c083015184820360c08601526135218282613133565b91505060e083015161353660e086018261363e565b50610100830151848203610100860152613550828261333e565b915050610120830151613567610120860182613320565b508091505092915050565b60006101008301600083015161358b600086018261363e565b50602083015161359e6020860182613115565b50604083015184820360408601526135b6828261333e565b915050606083015184820360608601526135d0828261333e565b915050608083015184820360808601526135ea82826131ef565b91505060a083015184820360a0860152613604828261333e565b91505060c083015184820360c086015261361e828261333e565b91505060e083015161363360e0860182613320565b508091505092915050565b61364781613b55565b82525050565b61365681613b55565b82525050565b600061366882846133b0565b915081905092915050565b60006020820190506136886000830184613124565b92915050565b60006060820190506136a36000830186613124565b81810360208301526136b58185613377565b905081810360408301526136c98184613377565b9050949350505050565b600060208201905081810360008301526136ed8184613191565b905092915050565b6000602082019050818103600083015261370f81846132c2565b905092915050565b600060208201905061372c600083018461332f565b92915050565b6000602082019050818103600083015261374b816133e1565b9050919050565b6000602082019050818103600083015261376c8184613404565b905092915050565b6000602082019050818103600083015261378e8184613475565b905092915050565b600060208201905081810360008301526137b08184613572565b905092915050565b60006020820190506137cd600083018461364d565b92915050565b600060e0820190506137e8600083018a61364d565b6137f56020830189613124565b81810360408301526138078188613377565b9050818103606083015261381b8187613377565b9050818103608083015261382f8186613377565b905081810360a08301526138438185613377565b905061385260c083018461332f565b98975050505050505050565b600061012082019050613874600083018c61364d565b613881602083018b613124565b8181036040830152613893818a613377565b905081810360608301526138a78189613377565b905081810360808301526138bb8188613377565b905081810360a08301526138cf8187613377565b90506138de60c083018661364d565b81810360e08301526138f08185613377565b905061390061010083018461332f565b9a9950505050505050505050565b6000613918613929565b90506139248282613bd3565b919050565b6000604051905090565b600067ffffffffffffffff82111561394e5761394d613cab565b5b602082029050602081019050919050565b600067ffffffffffffffff82111561397a57613979613cab565b5b602082029050602081019050919050565b600067ffffffffffffffff8211156139a6576139a5613cab565b5b6139af82613cda565b9050602081019050919050565b6000819050602082019050919050565b6000819050602082019050919050565b6000819050602082019050919050565b600081519050919050565b600081519050919050565b600081519050919050565b600081519050919050565b6000602082019050919050565b6000602082019050919050565b6000602082019050919050565b600082825260208201905092915050565b600082825260208201905092915050565b600082825260208201905092915050565b600082825260208201905092915050565b600082825260208201905092915050565b600082825260208201905092915050565b600082825260208201905092915050565b600081905092915050565b6000613acc82613b55565b9150613ad783613b55565b9250827fffffffffffffffffffffffffffffffffffffffffffffffffffffffffffffffff03821115613b0c57613b0b613c4d565b5b828201905092915050565b6000613b2282613b35565b9050919050565b60008115159050919050565b600073ffffffffffffffffffffffffffffffffffffffff82169050919050565b6000819050919050565b82818337600083830152505050565b60005b83811015613b8c578082015181840152602081019050613b71565b83811115613b9b576000848401525b50505050565b60006002820490506001821680613bb957607f821691505b60208210811415613bcd57613bcc613c7c565b5b50919050565b613bdc82613cda565b810181811067ffffffffffffffff82111715613bfb57613bfa613cab565b5b80604052505050565b6000613c0f82613b55565b91507fffffffffffffffffffffffffffffffffffffffffffffffffffffffffffffffff821415613c4257613c41613c4d565b5b600182019050919050565b7f4e487b7100000000000000000000000000000000000000000000000000000000600052601160045260246000fd5b7f4e487b7100000000000000000000000000000000000000000000000000000000600052602260045260246000fd5b7f4e487b7100000000000000000000000000000000000000000000000000000000600052604160045260246000fd5b6000601f19601f8301169050919050565b7f6e6f7420656e6f7567682076616c756500000000000000000000000000000000600082015250565b613d1d81613b17565b8114613d2857600080fd5b50565b613d3481613b29565b8114613d3f57600080fd5b50565b613d4b81613b55565b8114613d5657600080fd5b5056fea264697066735822122097154bbbafd136dc05e6fb7cd0854847f414fc01ac82857b800d0b0375633d6564736f6c63430008040033",
  "linkReferences": {},
  "deployedLinkReferences": {}
}