{
  "_format": "hh-sol-artifact-1",
  "contractName": "OneBeat",
  "sourceName": "contracts/OneBeat.sol",
  "abi": [
    {
      "inputs": [
        {
          "internalType": "uint256",
          "name": "",
          "type": "uint256"
        },
        {
          "internalType": "uint256",
          "name": "",
          "type": "uint256"
        }
      ],
      "name": "allowedWatchers",
      "outputs": [
        {
          "internalType": "address",
          "name": "",
          "type": "address"
        }
      ],
      "stateMutability": "view",
      "type": "function"
    },
    {
      "inputs": [
        {
          "internalType": "uint256",
          "name": "id",
          "type": "uint256"
        },
        {
          "internalType": "address",
          "name": "watcher",
          "type": "address"
        }
      ],
      "name": "bookSchdeuledStream",
      "outputs": [],
      "stateMutability": "payable",
      "type": "function"
    },
    {
      "inputs": [
        {
          "internalType": "uint256",
          "name": "tid",
          "type": "uint256"
        }
      ],
      "name": "buyNFT",
      "outputs": [],
      "stateMutability": "nonpayable",
      "type": "function"
    },
    {
      "inputs": [
        {
          "internalType": "uint256",
          "name": "tid",
          "type": "uint256"
        }
      ],
      "name": "createNFT",
      "outputs": [],
      "stateMutability": "nonpayable",
      "type": "function"
    },
    {
      "inputs": [
        {
          "internalType": "string",
          "name": "name",
          "type": "string"
        },
        {
          "internalType": "string",
          "name": "photo",
          "type": "string"
        }
      ],
      "name": "createProfile",
      "outputs": [],
      "stateMutability": "nonpayable",
      "type": "function"
    },
    {
      "inputs": [
        {
          "internalType": "address",
          "name": "creator",
          "type": "address"
        },
        {
          "internalType": "address[]",
          "name": "rights",
          "type": "address[]"
        },
        {
          "internalType": "string",
          "name": "cid",
          "type": "string"
        },
        {
          "internalType": "string",
          "name": "v_cid",
          "type": "string"
        }
      ],
      "name": "createStream",
      "outputs": [],
      "stateMutability": "nonpayable",
      "type": "function"
    },
    {
      "inputs": [
        {
          "internalType": "address",
          "name": "",
          "type": "address"
        }
      ],
      "name": "creatorName",
      "outputs": [
        {
          "internalType": "string",
          "name": "",
          "type": "string"
        }
      ],
      "stateMutability": "view",
      "type": "function"
    },
    {
      "inputs": [
        {
          "internalType": "address",
          "name": "",
          "type": "address"
        }
      ],
      "name": "creatorPhoto",
      "outputs": [
        {
          "internalType": "string",
          "name": "",
          "type": "string"
        }
      ],
      "stateMutability": "view",
      "type": "function"
    },
    {
      "inputs": [
        {
          "internalType": "address",
          "name": "",
          "type": "address"
        },
        {
          "internalType": "uint256",
          "name": "",
          "type": "uint256"
        }
      ],
      "name": "creatorTokens",
      "outputs": [
        {
          "internalType": "uint256",
          "name": "",
          "type": "uint256"
        }
      ],
      "stateMutability": "view",
      "type": "function"
    },
    {
      "inputs": [
        {
          "internalType": "uint256",
          "name": "id",
          "type": "uint256"
        }
      ],
      "name": "getAllScheduledStreams",
      "outputs": [
        {
          "components": [
            {
              "internalType": "uint256",
              "name": "schedule_id",
              "type": "uint256"
            },
            {
              "internalType": "address",
              "name": "schedule_creator",
              "type": "address"
            },
            {
              "internalType": "string",
              "name": "cover_cid",
              "type": "string"
            },
            {
              "internalType": "string",
              "name": "title",
              "type": "string"
            },
            {
              "internalType": "string",
              "name": "description",
              "type": "string"
            },
            {
              "internalType": "string",
              "name": "time",
              "type": "string"
            },
            {
              "internalType": "address[]",
              "name": "rights",
              "type": "address[]"
            },
            {
              "internalType": "uint256",
              "name": "price",
              "type": "uint256"
            },
            {
              "internalType": "string",
              "name": "s_video_id",
              "type": "string"
            },
            {
              "internalType": "bool",
              "name": "isOver",
              "type": "bool"
            }
          ],
          "internalType": "struct OneBeat.StreamScheduled",
          "name": "",
          "type": "tuple"
        }
      ],
      "stateMutability": "view",
      "type": "function"
    },
    {
      "inputs": [
        {
          "internalType": "uint256",
          "name": "id",
          "type": "uint256"
        }
      ],
      "name": "getAllStream",
      "outputs": [
        {
          "components": [
            {
              "internalType": "uint256",
              "name": "stream_id",
              "type": "uint256"
            },
            {
              "internalType": "address",
              "name": "stream_creator",
              "type": "address"
            },
            {
              "internalType": "address[]",
              "name": "stream_rights",
              "type": "address[]"
            },
            {
              "internalType": "string",
              "name": "img_cid",
              "type": "string"
            },
            {
              "internalType": "string",
              "name": "video_id",
              "type": "string"
            }
          ],
          "internalType": "struct OneBeat.Stream",
          "name": "",
          "type": "tuple"
        }
      ],
      "stateMutability": "view",
      "type": "function"
    },
    {
      "inputs": [],
      "name": "getAllUsers",
      "outputs": [
        {
          "internalType": "address[]",
          "name": "",
          "type": "address[]"
        }
      ],
      "stateMutability": "view",
      "type": "function"
    },
    {
      "inputs": [
        {
          "internalType": "uint256",
          "name": "id",
          "type": "uint256"
        }
      ],
      "name": "getAllowedWatcher",
      "outputs": [
        {
          "internalType": "address[]",
          "name": "",
          "type": "address[]"
        }
      ],
      "stateMutability": "view",
      "type": "function"
    },
    {
      "inputs": [],
      "name": "getName",
      "outputs": [
        {
          "internalType": "string",
          "name": "",
          "type": "string"
        }
      ],
      "stateMutability": "view",
      "type": "function"
    },
    {
      "inputs": [
        {
          "internalType": "address",
          "name": "righter",
          "type": "address"
        },
        {
          "internalType": "uint256",
          "name": "id",
          "type": "uint256"
        }
      ],
      "name": "getScheduledRights",
      "outputs": [
        {
          "internalType": "bool",
          "name": "",
          "type": "bool"
        }
      ],
      "stateMutability": "view",
      "type": "function"
    },
    {
      "inputs": [
        {
          "internalType": "address",
          "name": "righter",
          "type": "address"
        },
        {
          "internalType": "uint256",
          "name": "id",
          "type": "uint256"
        }
      ],
      "name": "getStreamRights",
      "outputs": [
        {
          "internalType": "bool",
          "name": "",
          "type": "bool"
        }
      ],
      "stateMutability": "view",
      "type": "function"
    },
    {
      "inputs": [],
      "name": "getTokens",
      "outputs": [
        {
          "internalType": "uint256[]",
          "name": "",
          "type": "uint256[]"
        }
      ],
      "stateMutability": "view",
      "type": "function"
    },
    {
      "inputs": [
        {
          "internalType": "uint256",
          "name": "",
          "type": "uint256"
        }
      ],
      "name": "idToScheduledStream",
      "outputs": [
        {
          "internalType": "uint256",
          "name": "schedule_id",
          "type": "uint256"
        },
        {
          "internalType": "address",
          "name": "schedule_creator",
          "type": "address"
        },
        {
          "internalType": "string",
          "name": "cover_cid",
          "type": "string"
        },
        {
          "internalType": "string",
          "name": "title",
          "type": "string"
        },
        {
          "internalType": "string",
          "name": "description",
          "type": "string"
        },
        {
          "internalType": "string",
          "name": "time",
          "type": "string"
        },
        {
          "internalType": "uint256",
          "name": "price",
          "type": "uint256"
        },
        {
          "internalType": "string",
          "name": "s_video_id",
          "type": "string"
        },
        {
          "internalType": "bool",
          "name": "isOver",
          "type": "bool"
        }
      ],
      "stateMutability": "view",
      "type": "function"
    },
    {
      "inputs": [
        {
          "internalType": "uint256",
          "name": "",
          "type": "uint256"
        }
      ],
      "name": "idToStream",
      "outputs": [
        {
          "internalType": "uint256",
          "name": "stream_id",
          "type": "uint256"
        },
        {
          "internalType": "address",
          "name": "stream_creator",
          "type": "address"
        },
        {
          "internalType": "string",
          "name": "img_cid",
          "type": "string"
        },
        {
          "internalType": "string",
          "name": "video_id",
          "type": "string"
        }
      ],
      "stateMutability": "view",
      "type": "function"
    },
    {
      "inputs": [
        {
          "internalType": "address",
          "name": "",
          "type": "address"
        },
        {
          "internalType": "uint256",
          "name": "",
          "type": "uint256"
        }
      ],
      "name": "isAllowedForScheduledNfts",
      "outputs": [
        {
          "internalType": "bool",
          "name": "",
          "type": "bool"
        }
      ],
      "stateMutability": "view",
      "type": "function"
    },
    {
      "inputs": [
        {
          "internalType": "address",
          "name": "",
          "type": "address"
        },
        {
          "internalType": "uint256",
          "name": "",
          "type": "uint256"
        }
      ],
      "name": "isAllowedForStreamedNfts",
      "outputs": [
        {
          "internalType": "bool",
          "name": "",
          "type": "bool"
        }
      ],
      "stateMutability": "view",
      "type": "function"
    },
    {
      "inputs": [
        {
          "internalType": "address",
          "name": "creator",
          "type": "address"
        },
        {
          "internalType": "string",
          "name": "cid",
          "type": "string"
        },
        {
          "internalType": "string",
          "name": "title",
          "type": "string"
        },
        {
          "internalType": "string",
          "name": "des",
          "type": "string"
        },
        {
          "internalType": "string",
          "name": "time",
          "type": "string"
        },
        {
          "internalType": "address[]",
          "name": "rights",
          "type": "address[]"
        },
        {
          "internalType": "uint256",
          "name": "price",
          "type": "uint256"
        }
      ],
      "name": "scheduleStream",
      "outputs": [],
      "stateMutability": "nonpayable",
      "type": "function"
    },
    {
      "inputs": [
        {
          "internalType": "uint256",
          "name": "id",
          "type": "uint256"
        },
        {
          "internalType": "string",
          "name": "v_id",
          "type": "string"
        }
      ],
      "name": "startStream",
      "outputs": [],
      "stateMutability": "nonpayable",
      "type": "function"
    },
    {
      "inputs": [
        {
          "internalType": "address",
          "name": "",
          "type": "address"
        },
        {
          "internalType": "uint256",
          "name": "",
          "type": "uint256"
        }
      ],
      "name": "userToScheduledStream",
      "outputs": [
        {
          "internalType": "uint256",
          "name": "",
          "type": "uint256"
        }
      ],
      "stateMutability": "view",
      "type": "function"
    },
    {
      "inputs": [
        {
          "internalType": "address",
          "name": "",
          "type": "address"
        },
        {
          "internalType": "uint256",
          "name": "",
          "type": "uint256"
        }
      ],
      "name": "userToStream",
      "outputs": [
        {
          "internalType": "uint256",
          "name": "",
          "type": "uint256"
        }
      ],
      "stateMutability": "view",
      "type": "function"
    },
    {
      "inputs": [
        {
          "internalType": "uint256",
          "name": "",
          "type": "uint256"
        }
      ],
      "name": "users",
      "outputs": [
        {
          "internalType": "address",
          "name": "",
          "type": "address"
        }
      ],
      "stateMutability": "view",
      "type": "function"
    }
  ],
  "bytecode": "0x608060405234801561001057600080fd5b50613158806100206000396000f3fe6080604052600436106101815760003560e01c80638d262dfa116100d1578063d48286a51161008a578063e115a50b11610064578063e115a50b14610626578063e2842d7914610663578063e59020e51461068e578063fae00f09146106cb57610181565b8063d48286a51461056c578063d5721a35146105a9578063db3fa4cc146105e957610181565b80638d262dfa146104595780639649215514610496578063aa6ca808146104bf578063aa757b82146104ea578063ba1feb8a14610527578063c518761e1461055057610181565b8063365b98b21161013e57806355f6333b1161011857806355f6333b146103855780635c42d504146103ca57806369bce71e146103f35780637ff195f51461041c57610181565b8063365b98b2146102e257806340d1d9411461031f57806351ed82881461035c57610181565b806305d91ccb14610186578063142fc78e146101c3578063147a49d21461020057806317d7de7c1461023d5780632aff7c3314610268578063350f81b8146102a5575b600080fd5b34801561019257600080fd5b506101ad60048036038101906101a891906125fa565b6106f4565b6040516101ba9190612bb0565b60405180910390f35b3480156101cf57600080fd5b506101ea60048036038101906101e591906125fa565b610723565b6040516101f79190612c51565b60405180910390f35b34801561020c57600080fd5b50610227600480360381019061022291906125fa565b610754565b6040516102349190612bb0565b60405180910390f35b34801561024957600080fd5b506102526107bc565b60405161025f9190612bcb565b60405180910390f35b34801561027457600080fd5b5061028f600480360381019061028a91906126a2565b61088b565b60405161029c9190612b6c565b60405180910390f35b3480156102b157600080fd5b506102cc60048036038101906102c791906126a2565b61092c565b6040516102d99190612c0d565b60405180910390f35b3480156102ee57600080fd5b50610309600480360381019061030491906126a2565b610d47565b6040516103169190612b51565b60405180910390f35b34801561032b57600080fd5b50610346600480360381019061034191906125fa565b610d86565b6040516103539190612bb0565b60405180910390f35b34801561036857600080fd5b50610383600480360381019061037e91906126a2565b610dee565b005b34801561039157600080fd5b506103ac60048036038101906103a791906126a2565b610e57565b6040516103c199989796959493929190612cbf565b60405180910390f35b3480156103d657600080fd5b506103f160048036038101906103ec9190612707565b61117a565b005b3480156103ff57600080fd5b5061041a600480360381019061041591906124e4565b6111d8565b005b34801561042857600080fd5b50610443600480360381019061043e919061275b565b6114e1565b6040516104509190612b51565b60405180910390f35b34801561046557600080fd5b50610480600480360381019061047b91906125fa565b61152f565b60405161048d9190612c51565b60405180910390f35b3480156104a257600080fd5b506104bd60048036038101906104b891906126a2565b611560565b005b3480156104cb57600080fd5b506104d46115c9565b6040516104e19190612b8e565b60405180910390f35b3480156104f657600080fd5b50610511600480360381019061050c91906125fa565b61165e565b60405161051e9190612bb0565b60405180910390f35b34801561053357600080fd5b5061054e60048036038101906105499190612636565b61168d565b005b61056a600480360381019061056591906126cb565b611845565b005b34801561057857600080fd5b50610593600480360381019061058e91906126a2565b61191b565b6040516105a09190612c2f565b60405180910390f35b3480156105b557600080fd5b506105d060048036038101906105cb91906126a2565b611b5a565b6040516105e09493929190612c6c565b60405180910390f35b3480156105f557600080fd5b50610610600480360381019061060b91906125fa565b611cba565b60405161061d9190612c51565b60405180910390f35b34801561063257600080fd5b5061064d60048036038101906106489190612410565b611ceb565b60405161065a9190612bcb565b60405180910390f35b34801561066f57600080fd5b50610678611d8b565b6040516106859190612b6c565b60405180910390f35b34801561069a57600080fd5b506106b560048036038101906106b09190612410565b611e19565b6040516106c29190612bcb565b60405180910390f35b3480156106d757600080fd5b506106f260048036038101906106ed9190612439565b611eb9565b005b60046020528160005260406000206020528060005260406000206000915091509054906101000a900460ff1681565b6006602052816000526040600020818154811061073f57600080fd5b90600052602060002001600091509150505481565b6000600460008473ffffffffffffffffffffffffffffffffffffffff1673ffffffffffffffffffffffffffffffffffffffff168152602001908152602001600020600083815260200190815260200160002060009054906101000a900460ff16905092915050565b6060600860003373ffffffffffffffffffffffffffffffffffffffff1673ffffffffffffffffffffffffffffffffffffffff168152602001908152602001600020805461080890612f81565b80601f016020809104026020016040519081016040528092919081815260200182805461083490612f81565b80156108815780601f1061085657610100808354040283529160200191610881565b820191906000526020600020905b81548152906001019060200180831161086457829003601f168201915b5050505050905090565b6060600b600083815260200190815260200160002080548060200260200160405190810160405280929190818152602001828054801561092057602002820191906000526020600020905b8160009054906101000a900473ffffffffffffffffffffffffffffffffffffffff1673ffffffffffffffffffffffffffffffffffffffff16815260200190600101908083116108d6575b50505050509050919050565b61093461210b565b6005600083815260200190815260200160002060405180610140016040529081600082015481526020016001820160009054906101000a900473ffffffffffffffffffffffffffffffffffffffff1673ffffffffffffffffffffffffffffffffffffffff1673ffffffffffffffffffffffffffffffffffffffff1681526020016002820180546109c390612f81565b80601f01602080910402602001604051908101604052809291908181526020018280546109ef90612f81565b8015610a3c5780601f10610a1157610100808354040283529160200191610a3c565b820191906000526020600020905b815481529060010190602001808311610a1f57829003601f168201915b50505050508152602001600382018054610a5590612f81565b80601f0160208091040260200160405190810160405280929190818152602001828054610a8190612f81565b8015610ace5780601f10610aa357610100808354040283529160200191610ace565b820191906000526020600020905b815481529060010190602001808311610ab157829003601f168201915b50505050508152602001600482018054610ae790612f81565b80601f0160208091040260200160405190810160405280929190818152602001828054610b1390612f81565b8015610b605780601f10610b3557610100808354040283529160200191610b60565b820191906000526020600020905b815481529060010190602001808311610b4357829003601f168201915b50505050508152602001600582018054610b7990612f81565b80601f0160208091040260200160405190810160405280929190818152602001828054610ba590612f81565b8015610bf25780601f10610bc757610100808354040283529160200191610bf2565b820191906000526020600020905b815481529060010190602001808311610bd557829003601f168201915b5050505050815260200160068201805480602002602001604051908101604052809291908181526020018280548015610c8057602002820191906000526020600020905b8160009054906101000a900473ffffffffffffffffffffffffffffffffffffffff1673ffffffffffffffffffffffffffffffffffffffff1681526020019060010190808311610c36575b5050505050815260200160078201548152602001600882018054610ca390612f81565b80601f0160208091040260200160405190810160405280929190818152602001828054610ccf90612f81565b8015610d1c5780601f10610cf157610100808354040283529160200191610d1c565b820191906000526020600020905b815481529060010190602001808311610cff57829003601f168201915b505050505081526020016009820160009054906101000a900460ff1615151515815250509050919050565b60008181548110610d5757600080fd5b906000526020600020016000915054906101000a900473ffffffffffffffffffffffffffffffffffffffff1681565b6000600760008473ffffffffffffffffffffffffffffffffffffffff1673ffffffffffffffffffffffffffffffffffffffff168152602001908152602001600020600083815260200190815260200160002060009054906101000a900460ff16905092915050565b600a60003373ffffffffffffffffffffffffffffffffffffffff1673ffffffffffffffffffffffffffffffffffffffff16815260200190815260200160002081908060018154018082558091505060019003906000526020600020016000909190919091505550565b60056020528060005260406000206000915090508060000154908060010160009054906101000a900473ffffffffffffffffffffffffffffffffffffffff1690806002018054610ea690612f81565b80601f0160208091040260200160405190810160405280929190818152602001828054610ed290612f81565b8015610f1f5780601f10610ef457610100808354040283529160200191610f1f565b820191906000526020600020905b815481529060010190602001808311610f0257829003601f168201915b505050505090806003018054610f3490612f81565b80601f0160208091040260200160405190810160405280929190818152602001828054610f6090612f81565b8015610fad5780601f10610f8257610100808354040283529160200191610fad565b820191906000526020600020905b815481529060010190602001808311610f9057829003601f168201915b505050505090806004018054610fc290612f81565b80601f0160208091040260200160405190810160405280929190818152602001828054610fee90612f81565b801561103b5780601f106110105761010080835404028352916020019161103b565b820191906000526020600020905b81548152906001019060200180831161101e57829003601f168201915b50505050509080600501805461105090612f81565b80601f016020809104026020016040519081016040528092919081815260200182805461107c90612f81565b80156110c95780601f1061109e576101008083540402835291602001916110c9565b820191906000526020600020905b8154815290600101906020018083116110ac57829003601f168201915b5050505050908060070154908060080180546110e490612f81565b80601f016020809104026020016040519081016040528092919081815260200182805461111090612f81565b801561115d5780601f106111325761010080835404028352916020019161115d565b820191906000526020600020905b81548152906001019060200180831161114057829003601f168201915b5050505050908060090160009054906101000a900460ff16905089565b806005600084815260200190815260200160002060080190805190602001906111a4929190612176565b5060016005600084815260200190815260200160002060090160006101000a81548160ff0219169083151502179055505050565b6001600c60008282546111eb9190612ea1565b92505081905550604051806101400160405280600c5481526020018873ffffffffffffffffffffffffffffffffffffffff1681526020018781526020018681526020018581526020018481526020018381526020018281526020016040518060200160405280600081525081526020016000151581525060056000600c5481526020019081526020016000206000820151816000015560208201518160010160006101000a81548173ffffffffffffffffffffffffffffffffffffffff021916908373ffffffffffffffffffffffffffffffffffffffff16021790555060408201518160020190805190602001906112e4929190612176565b506060820151816003019080519060200190611301929190612176565b50608082015181600401908051906020019061131e929190612176565b5060a082015181600501908051906020019061133b929190612176565b5060c08201518160060190805190602001906113589291906121fc565b5060e08201518160070155610100820151816008019080519060200190611380929190612176565b506101208201518160090160006101000a81548160ff021916908315150217905550905050600660008873ffffffffffffffffffffffffffffffffffffffff1673ffffffffffffffffffffffffffffffffffffffff168152602001908152602001600020600c54908060018154018082558091505060019003906000526020600020016000909190919091505560005b82518110156114d757600160076000858481518110611458577f4e487b7100000000000000000000000000000000000000000000000000000000600052603260045260246000fd5b602002602001015173ffffffffffffffffffffffffffffffffffffffff1673ffffffffffffffffffffffffffffffffffffffff1681526020019081526020016000206000600d54815260200190815260200160002060006101000a81548160ff02191690831515021790555080806114cf90612fe4565b915050611410565b5050505050505050565b600b60205281600052604060002081815481106114fd57600080fd5b906000526020600020016000915091509054906101000a900473ffffffffffffffffffffffffffffffffffffffff1681565b6003602052816000526040600020818154811061154b57600080fd5b90600052602060002001600091509150505481565b600a60003373ffffffffffffffffffffffffffffffffffffffff1673ffffffffffffffffffffffffffffffffffffffff16815260200190815260200160002081908060018154018082558091505060019003906000526020600020016000909190919091505550565b6060600a60003373ffffffffffffffffffffffffffffffffffffffff1673ffffffffffffffffffffffffffffffffffffffff16815260200190815260200160002080548060200260200160405190810160405280929190818152602001828054801561165457602002820191906000526020600020905b815481526020019060010190808311611640575b5050505050905090565b60076020528160005260406000206020528060005260406000206000915091509054906101000a900460ff1681565b600160003373ffffffffffffffffffffffffffffffffffffffff1673ffffffffffffffffffffffffffffffffffffffff16815260200190815260200160002060009054906101000a900460ff16611799576000339080600181540180825580915050600190039060005260206000200160009091909190916101000a81548173ffffffffffffffffffffffffffffffffffffffff021916908373ffffffffffffffffffffffffffffffffffffffff16021790555060018060003373ffffffffffffffffffffffffffffffffffffffff1673ffffffffffffffffffffffffffffffffffffffff16815260200190815260200160002060006101000a81548160ff0219169083151502179055505b81600860003373ffffffffffffffffffffffffffffffffffffffff1673ffffffffffffffffffffffffffffffffffffffff16815260200190815260200160002090805190602001906117ec929190612176565b5080600860003373ffffffffffffffffffffffffffffffffffffffff1673ffffffffffffffffffffffffffffffffffffffff1681526020019081526020016000209080519060200190611840929190612176565b505050565b6000600560008481526020019081526020016000206007015490508034146118a2576040517f08c379a000000000000000000000000000000000000000000000000000000000815260040161189990612bed565b60405180910390fd5b600b6000848152602001908152602001600020829080600181540180825580915050600190039060005260206000200160009091909190916101000a81548173ffffffffffffffffffffffffffffffffffffffff021916908373ffffffffffffffffffffffffffffffffffffffff160217905550505050565b611923612286565b600260008381526020019081526020016000206040518060a0016040529081600082015481526020016001820160009054906101000a900473ffffffffffffffffffffffffffffffffffffffff1673ffffffffffffffffffffffffffffffffffffffff1673ffffffffffffffffffffffffffffffffffffffff16815260200160028201805480602002602001604051908101604052809291908181526020018280548015611a2657602002820191906000526020600020905b8160009054906101000a900473ffffffffffffffffffffffffffffffffffffffff1673ffffffffffffffffffffffffffffffffffffffff16815260200190600101908083116119dc575b50505050508152602001600382018054611a3f90612f81565b80601f0160208091040260200160405190810160405280929190818152602001828054611a6b90612f81565b8015611ab85780601f10611a8d57610100808354040283529160200191611ab8565b820191906000526020600020905b815481529060010190602001808311611a9b57829003601f168201915b50505050508152602001600482018054611ad190612f81565b80601f0160208091040260200160405190810160405280929190818152602001828054611afd90612f81565b8015611b4a5780601f10611b1f57610100808354040283529160200191611b4a565b820191906000526020600020905b815481529060010190602001808311611b2d57829003601f168201915b5050505050815250509050919050565b60026020528060005260406000206000915090508060000154908060010160009054906101000a900473ffffffffffffffffffffffffffffffffffffffff1690806003018054611ba990612f81565b80601f0160208091040260200160405190810160405280929190818152602001828054611bd590612f81565b8015611c225780601f10611bf757610100808354040283529160200191611c22565b820191906000526020600020905b815481529060010190602001808311611c0557829003601f168201915b505050505090806004018054611c3790612f81565b80601f0160208091040260200160405190810160405280929190818152602001828054611c6390612f81565b8015611cb05780601f10611c8557610100808354040283529160200191611cb0565b820191906000526020600020905b815481529060010190602001808311611c9357829003601f168201915b5050505050905084565b600a6020528160005260406000208181548110611cd657600080fd5b90600052602060002001600091509150505481565b60096020528060005260406000206000915090508054611d0a90612f81565b80601f0160208091040260200160405190810160405280929190818152602001828054611d3690612f81565b8015611d835780601f10611d5857610100808354040283529160200191611d83565b820191906000526020600020905b815481529060010190602001808311611d6657829003601f168201915b505050505081565b60606000805480602002602001604051908101604052809291908181526020018280548015611e0f57602002820191906000526020600020905b8160009054906101000a900473ffffffffffffffffffffffffffffffffffffffff1673ffffffffffffffffffffffffffffffffffffffff1681526020019060010190808311611dc5575b5050505050905090565b60086020528060005260406000206000915090508054611e3890612f81565b80601f0160208091040260200160405190810160405280929190818152602001828054611e6490612f81565b8015611eb15780601f10611e8657610100808354040283529160200191611eb1565b820191906000526020600020905b815481529060010190602001808311611e9457829003601f168201915b505050505081565b6001600d6000828254611ecc9190612ea1565b925050819055506040518060a00160405280600d5481526020018573ffffffffffffffffffffffffffffffffffffffff1681526020018481526020018381526020018281525060026000600d5481526020019081526020016000206000820151816000015560208201518160010160006101000a81548173ffffffffffffffffffffffffffffffffffffffff021916908373ffffffffffffffffffffffffffffffffffffffff1602179055506040820151816002019080519060200190611f949291906121fc565b506060820151816003019080519060200190611fb1929190612176565b506080820151816004019080519060200190611fce929190612176565b50905050600360008573ffffffffffffffffffffffffffffffffffffffff1673ffffffffffffffffffffffffffffffffffffffff168152602001908152602001600020600d54908060018154018082558091505060019003906000526020600020016000909190919091505560005b835181101561210457600160046000868481518110612085577f4e487b7100000000000000000000000000000000000000000000000000000000600052603260045260246000fd5b602002602001015173ffffffffffffffffffffffffffffffffffffffff1673ffffffffffffffffffffffffffffffffffffffff1681526020019081526020016000206000600d54815260200190815260200160002060006101000a81548160ff02191690831515021790555080806120fc90612fe4565b91505061203d565b5050505050565b60405180610140016040528060008152602001600073ffffffffffffffffffffffffffffffffffffffff168152602001606081526020016060815260200160608152602001606081526020016060815260200160008152602001606081526020016000151581525090565b82805461218290612f81565b90600052602060002090601f0160209004810192826121a457600085556121eb565b82601f106121bd57805160ff19168380011785556121eb565b828001600101855582156121eb579182015b828111156121ea5782518255916020019190600101906121cf565b5b5090506121f891906122cb565b5090565b828054828255906000526020600020908101928215612275579160200282015b828111156122745782518260006101000a81548173ffffffffffffffffffffffffffffffffffffffff021916908373ffffffffffffffffffffffffffffffffffffffff1602179055509160200191906001019061221c565b5b50905061228291906122cb565b5090565b6040518060a0016040528060008152602001600073ffffffffffffffffffffffffffffffffffffffff1681526020016060815260200160608152602001606081525090565b5b808211156122e45760008160009055506001016122cc565b5090565b60006122fb6122f684612d94565b612d6f565b9050808382526020820190508285602086028201111561231a57600080fd5b60005b8581101561234a57816123308882612392565b84526020840193506020830192505060018101905061231d565b5050509392505050565b600061236761236284612dc0565b612d6f565b90508281526020810184848401111561237f57600080fd5b61238a848285612f3f565b509392505050565b6000813590506123a1816130f4565b92915050565b600082601f8301126123b857600080fd5b81356123c88482602086016122e8565b91505092915050565b600082601f8301126123e257600080fd5b81356123f2848260208601612354565b91505092915050565b60008135905061240a8161310b565b92915050565b60006020828403121561242257600080fd5b600061243084828501612392565b91505092915050565b6000806000806080858703121561244f57600080fd5b600061245d87828801612392565b945050602085013567ffffffffffffffff81111561247a57600080fd5b612486878288016123a7565b935050604085013567ffffffffffffffff8111156124a357600080fd5b6124af878288016123d1565b925050606085013567ffffffffffffffff8111156124cc57600080fd5b6124d8878288016123d1565b91505092959194509250565b600080600080600080600060e0888a0312156124ff57600080fd5b600061250d8a828b01612392565b975050602088013567ffffffffffffffff81111561252a57600080fd5b6125368a828b016123d1565b965050604088013567ffffffffffffffff81111561255357600080fd5b61255f8a828b016123d1565b955050606088013567ffffffffffffffff81111561257c57600080fd5b6125888a828b016123d1565b945050608088013567ffffffffffffffff8111156125a557600080fd5b6125b18a828b016123d1565b93505060a088013567ffffffffffffffff8111156125ce57600080fd5b6125da8a828b016123a7565b92505060c06125eb8a828b016123fb565b91505092959891949750929550565b6000806040838503121561260d57600080fd5b600061261b85828601612392565b925050602061262c858286016123fb565b9150509250929050565b6000806040838503121561264957600080fd5b600083013567ffffffffffffffff81111561266357600080fd5b61266f858286016123d1565b925050602083013567ffffffffffffffff81111561268c57600080fd5b612698858286016123d1565b9150509250929050565b6000602082840312156126b457600080fd5b60006126c2848285016123fb565b91505092915050565b600080604083850312156126de57600080fd5b60006126ec858286016123fb565b92505060206126fd85828601612392565b9150509250929050565b6000806040838503121561271a57600080fd5b6000612728858286016123fb565b925050602083013567ffffffffffffffff81111561274557600080fd5b612751858286016123d1565b9150509250929050565b6000806040838503121561276e57600080fd5b600061277c858286016123fb565b925050602061278d858286016123fb565b9150509250929050565b60006127a383836127c7565b60208301905092915050565b60006127bb8383612b33565b60208301905092915050565b6127d081612ef7565b82525050565b6127df81612ef7565b82525050565b60006127f082612e11565b6127fa8185612e4c565b935061280583612df1565b8060005b8381101561283657815161281d8882612797565b975061282883612e32565b925050600181019050612809565b5085935050505092915050565b600061284e82612e11565b6128588185612e5d565b935061286383612df1565b8060005b8381101561289457815161287b8882612797565b975061288683612e32565b925050600181019050612867565b5085935050505092915050565b60006128ac82612e1c565b6128b68185612e6e565b93506128c183612e01565b8060005b838110156128f25781516128d988826127af565b97506128e483612e3f565b9250506001810190506128c5565b5085935050505092915050565b61290881612f09565b82525050565b61291781612f09565b82525050565b600061292882612e27565b6129328185612e7f565b9350612942818560208601612f4e565b61294b816130ba565b840191505092915050565b600061296182612e27565b61296b8185612e90565b935061297b818560208601612f4e565b612984816130ba565b840191505092915050565b600061299c601083612e90565b91506129a7826130cb565b602082019050919050565b6000610140830160008301516129cb6000860182612b33565b5060208301516129de60208601826127c7565b50604083015184820360408601526129f6828261291d565b91505060608301518482036060860152612a10828261291d565b91505060808301518482036080860152612a2a828261291d565b91505060a083015184820360a0860152612a44828261291d565b91505060c083015184820360c0860152612a5e82826127e5565b91505060e0830151612a7360e0860182612b33565b50610100830151848203610100860152612a8d828261291d565b915050610120830151612aa46101208601826128ff565b508091505092915050565b600060a083016000830151612ac76000860182612b33565b506020830151612ada60208601826127c7565b5060408301518482036040860152612af282826127e5565b91505060608301518482036060860152612b0c828261291d565b91505060808301518482036080860152612b26828261291d565b9150508091505092915050565b612b3c81612f35565b82525050565b612b4b81612f35565b82525050565b6000602082019050612b6660008301846127d6565b92915050565b60006020820190508181036000830152612b868184612843565b905092915050565b60006020820190508181036000830152612ba881846128a1565b905092915050565b6000602082019050612bc5600083018461290e565b92915050565b60006020820190508181036000830152612be58184612956565b905092915050565b60006020820190508181036000830152612c068161298f565b9050919050565b60006020820190508181036000830152612c2781846129b2565b905092915050565b60006020820190508181036000830152612c498184612aaf565b905092915050565b6000602082019050612c666000830184612b42565b92915050565b6000608082019050612c816000830187612b42565b612c8e60208301866127d6565b8181036040830152612ca08185612956565b90508181036060830152612cb48184612956565b905095945050505050565b600061012082019050612cd5600083018c612b42565b612ce2602083018b6127d6565b8181036040830152612cf4818a612956565b90508181036060830152612d088189612956565b90508181036080830152612d1c8188612956565b905081810360a0830152612d308187612956565b9050612d3f60c0830186612b42565b81810360e0830152612d518185612956565b9050612d6161010083018461290e565b9a9950505050505050505050565b6000612d79612d8a565b9050612d858282612fb3565b919050565b6000604051905090565b600067ffffffffffffffff821115612daf57612dae61308b565b5b602082029050602081019050919050565b600067ffffffffffffffff821115612ddb57612dda61308b565b5b612de4826130ba565b9050602081019050919050565b6000819050602082019050919050565b6000819050602082019050919050565b600081519050919050565b600081519050919050565b600081519050919050565b6000602082019050919050565b6000602082019050919050565b600082825260208201905092915050565b600082825260208201905092915050565b600082825260208201905092915050565b600082825260208201905092915050565b600082825260208201905092915050565b6000612eac82612f35565b9150612eb783612f35565b9250827fffffffffffffffffffffffffffffffffffffffffffffffffffffffffffffffff03821115612eec57612eeb61302d565b5b828201905092915050565b6000612f0282612f15565b9050919050565b60008115159050919050565b600073ffffffffffffffffffffffffffffffffffffffff82169050919050565b6000819050919050565b82818337600083830152505050565b60005b83811015612f6c578082015181840152602081019050612f51565b83811115612f7b576000848401525b50505050565b60006002820490506001821680612f9957607f821691505b60208210811415612fad57612fac61305c565b5b50919050565b612fbc826130ba565b810181811067ffffffffffffffff82111715612fdb57612fda61308b565b5b80604052505050565b6000612fef82612f35565b91507fffffffffffffffffffffffffffffffffffffffffffffffffffffffffffffffff8214156130225761302161302d565b5b600182019050919050565b7f4e487b7100000000000000000000000000000000000000000000000000000000600052601160045260246000fd5b7f4e487b7100000000000000000000000000000000000000000000000000000000600052602260045260246000fd5b7f4e487b7100000000000000000000000000000000000000000000000000000000600052604160045260246000fd5b6000601f19601f8301169050919050565b7f6e6f7420656e6f7567682076616c756500000000000000000000000000000000600082015250565b6130fd81612ef7565b811461310857600080fd5b50565b61311481612f35565b811461311f57600080fd5b5056fea2646970667358221220a8acd1dc8df269655376455779bf8f67e9dc86ebce6bf1e513475ac3e1c0532d64736f6c63430008040033",
  "linkReferences": {},
  "deployedLinkReferences": {}
}